:0400000080313728EC
:100008007E1480312E00191A0F1E1F2820006A083E
:100018007D0603191D287D08703E86008701233060
:10002800873D010822009A007D08013E7F39FD00C6
:100038001F282E0019122E00991A8F1E2F28220011
:1000480019082000E90001302100E20022009D1C6F
:100058002F281D121D163E003F1E35283F128931DC
:10006800E6217E100900803139288B3084009530D4
:1000780085001200EB001200EC001200ED001200E7
:10008800EE001200EF0021008731FE278031E300E7
:100098008731FF278031E4007030840023308500E9
:1000A8008030FE000030FF00883101208031FD01E2
:1000B8005F308400003085000C30FE000030FF0007
:1000C800883101208031A030840000308500433021
:1000D800FE000030FF00883101207E1020008031B2
:1000E800752888310D208031973136278031963137
:1000F800122680319531CB2580319531A925803163
:10010800200096169614161596159C30AE00983059
:10011800AF008431292480311730AE009930AF0008
:10012800843129248031013024009E008F3026003C
:100138008E00E03025008E002D308D00173026000F
:100148008C0009302000D1001E30D000E430890B2B
:10015800AB28D00BAB28D10BAB28000026008C01B4
:100168008E0125008E0120001810A230AE009930B3
:10017800AF0084312924803105302000D1000F30B0
:10018800D000F130890BC628D00BC628D10BC62861
:10019800F0302000AE009A30AF008431292480313D
:1001A800C230AE009930AF0026000E082000D00003
:1001B800D1015008B0005108B10025000E082000F8
:1001C800D200D3015208B2005308B30025000D082D
:1001D8002000D400D5015408B4005508B500260005
:1001E8000C082000D600D7015608B6005708B700FB
:1001F800843129248031C630AE009A30AF00240003
:100208001E082000D000D1015008B0005108B100EC
:1002180024001F082000D200D3015208B20053085E
:10022800B3008431292480316930AE009A30AF00A0
:10023800250010082000D000D1015008B000510856
:10024800B100250016082000D200D3015208B200E0
:100258005308B30084312924803107302000D100AD
:100268001730D0006A30890B3729D00B3729D10BCA
:100278003729000034302000AE009A30AF00270044
:100288000E082000D000D1015008B0005108B1007C
:10029800250014082000D200D3015208B2005308E8
:1002A800B300250013082000D400D5015408B40079
:1002B8005508B500843129248031DC30AE009A30ED
:1002C800AF003E0020082000D000D1015008B00047
:1002D8005108B1003E0026082000D200D301520880
:1002E800B2005308B3008431292480318230AE0033
:1002F8009930AF001308D000D1015008B000510860
:10030800B1001808D200D3015208B2005308B30054
:100318003E004E082000D400D5015408B40055080A
:10032800B5008431292480319930AE009A30AF006D
:10033800310011082000D000D1015008B000510848
:10034800B100310010082000D200D3015208B200D9
:100358005308B3008431292480315830AE009B30D3
:10036800AF0084312924803100309531BA2580319D
:100378002000EF000F306F02031CC62938306F02CF
:10038800031CC8292D30EF001E30DD00DC01DA0126
:10039800DB01931398133F30920003302000D10003
:1003A8000830D0007730890BD729D00BD729D10B4B
:1003B800D72920000D080339031D2B2A0130E50039
:1003C8001930AE009A30AF008431292480313230A0
:1003D800AE009B30AF006F08D000D1015008B000CC
:1003E8005108B1008431292480318F3026008E00D5
:1003F800E03025008E00013024009E002D302500BD
:100408008D00173026008C002000E8010130E7003D
:10041800C830DF000030E000C8302100E3000030C1
:10042800E400033020000D05D00003305006031906
:100438002B2A931398133F30920068302000D00085
:10044800E430890B252AD00B252A0000152A9201B1
:10045800981793178C31E62480312100620803191C
:100468004A2BE20120006908DE002430AE009B30F0
:10047800AF005E08D000D1015008B0005108B100AB
:1004880084312924803148305E0603194F2A6830A8
:100498005E06031D5A2AE6013E00A00150105110C5
:1004A80020001814E230AE009930462B4C305E061E
:1004B8000319622A6C305E06031D6D2AE6013E00B0
:1004C800A0015010511020001810FE30AE009930D5
:1004D800462B54305E060319752A74305E06031DD8
:1004E8008E2A6608031D7A2A01307B2A0030E6002E
:1004F80066080319892A3E00A001501051102000F7
:1005080018143B30AE009930462B1810F230AE006C
:100518009830462B50305E060319962A70305E06D6
:10052800031DAE2AE6018F3026008E00E03025003C
:100538008E0009303E00A0002D3025008D001730B8
:1005480026008C003E005010511008302000AE00EC
:100558009830462B52305E060319B62A72305E0672
:10056800031D2F2BF030AE009A30AF0084312924C0
:1005780080315F30AE009930AF001808D000D1014B
:100588005008B0005108B1001308D200D301520836
:10059800B2005308B3003E0020082000D400D50163
:1005A8005408B4005508B500843129248031C73077
:1005B800AE009830AF0026000E082000D000D10110
:1005C8005008B0005108B10025000E082000D200E4
:1005D800D3015208B2005308B30025000D082000CB
:1005E800D400D5015408B4005508B50026000C08FD
:1005F8002000D600D7015608B6005708B700843146
:10060800292480316C30AE009830AF006408D000E7
:10061800D1015008B0005108B1006508D200D301DB
:100628005208B2005308B3006608D400D501540834
:10063800B4005508B5008431292480314F30AE000C
:100648009A30AF0012309731712780312108B100FC
:100658002008B000472B53305E060319372B733040
:100668005E06031D4A2BE6013E00A001200018107B
:1006780026008E018C013E00501051103B302000A6
:10068800AE009830AF0084312924803120006408FE
:100698000319622B033021005702E8300319560270
:1006A800031C642B00305902F63003195802031852
:1006B800642B20006208031D642B20009616662B0D
:1006C800200096126508031D6B2B5D086C2B6F08C4
:1006D800D000D1015008D8005108D90058088931F4
:1006E8002A2180316508031D0E2C64080319892B03
:1006F800073021005702D0300319560203188C2BFB
:100708000330D6070030D73D8C2B2100D601D70106
:100718000330D4070030D53D01305502F4300319B9
:100728005402031CA92BF430D4020130D53B20001D
:100738006208031DA12B0130A22B0030E2006408DF
:100748000319A92B8B31AD23803103302000DA0740
:100758000030DB3D03305B02E83003195A02031C0A
:100768000E2CE830DA020330DB3B66080319D02B85
:10077800013098068130AE009A30AF000310181887
:1007880003140030093DD000D1015008B0005108D1
:10079800B100843129248031640803190E2C5D08C6
:1007A80003195C080319E52B5C08031DE32B5D089E
:1007B8000319E52B0130DD023B30DC00E52B01306D
:1007C800DC025D08031D0E2C5C08031D0E2CE401E1
:1007D8001E30DD00DC018C31E62480318F302600AC
:1007E8008E00E03025008E0009303E00A0002D303C
:1007F80025008D00173026008C002000E80101300C
:10080800E700C230DF000130E000C2302100E30021
:100818000130E4005C302000C6005A30C7005D306B
:100828008E312D2680315C30C8005A30C9005D30C9
:100838008631302680318A31B62280318C31E624E7
:10084800803188319E208031312A3030C10020002B
:100858002F08B9002E08B800AE0A0319AF0A3808E5
:100868008400390885000008C700470803190800F4
:10087800253047060319452C47089531DD25843175
:100888002B2CC501C601C4014E2C44150130AE07FE
:100898000030AF3D2E0884002F0885000008303A4C
:1008A8000319492C572C2E0884002F0885000008AE
:1008B80095319B258431031CDB2CC501C6010A3008
:1008C800A0000030A1004608A3004508A200873117
:1008D800E32784312108C6002008C5002E088400BB
:1008E8002F0885000008D03EB800FF3003180030FC
:1008F800B9003808C5073908C63D0130AE070030D1
:10090800AF3D2E0884002F088500000895319B25EF
:100918008431031CDB2C632CC417FE2C00304602E8
:10092800023003194502031C9E2CFF30C507FF3017
:10093800C63DA02CC501C601FF302000C507FF3009
:10094800C63D450A0319460A0319BB2C20309531C8
:10095800DD258431A02C3D088600870101089531EA
:10096800DD25843101302000B8003808BD0701308A
:10097800BE020030BF3B3E0A031DAF2C3F0A0319DD
:100988002B2CAF2C4108860087010108C7000230D4
:10099800B8003808C1074730BD000130BE0000303C
:1009A800BF00922CC030B8003808C404FE2C2F08B1
:1009B800B9002E08B800AE0A0319AF0A3808840037
:1009C800390885000008C700003A03192F2E583A45
:1009D8000319902C3B3A0319C62C073A0319FE2C2D
:1009E8000D3A0319FE2C1C3A0319D62C0D3A03199B
:1009F800902CCF2C4408C039031D192D41088600BE
:100A08008701403FC200413FC3000230B8003808A8
:100A1800C107C31F6B2D0330B8003808C404C209CE
:100A2800C309C20A0319C30A6B2D4108860087014E
:100A3800403FC200413FC3000230B8003808C10738
:100A48006B2DC701C70A053047060319772D4708DC
:100A5800B800B901B835B90D6430380784001B30C7
:100A6800393D80388500003FBA00013FBB003B0894
:100A78004302031D412D3A084202031C772D013021
:100A8800B8003808C707272DC701C70A043047062A
:100A98000319772D4708B800B901B835B90D0030EA
:100AA800380784001830393D80388500003FBA0087
:100AB800013FBB003B084302031D642D3A08420274
:100AC800031C772D0130B8003808C7074A2D4408A1
:100AD800C039003A0319252D803A0319482D403AA8
:100AE8000319252D772D450846040319832D44083D
:100AF80003390319832DFF30C507FF30C63D46086B
:100B0800803A803C031D8A2D450847020318952D1D
:100B180020004708B800B9013808C5023908C63BA3
:100B2800982D2000C501C601441DB12D4408033984
:100B38000319A22D2D309531DD258431200045087B
:100B480046040319CA2D30309531DD258431FF3034
:100B58002000C507FF30C63DA32D450846040319EC
:100B6800C22D20309531DD258431FF302000C507A6
:100B7800FF30C63D45084604031DB52D440803391A
:100B88000319CA2D2D309531DD2584312000470801
:100B9800C0001A2E0A30A8000030A9004008B8008A
:100BA800B901B835B90D6430380784001B30393DB8
:100BB80080388500003FA000013FA1004308A30042
:100BC8004208A2009631CD2684312108AB002008C6
:100BD800AA009631722684312808303E152E400826
:100BE800B800B901B835B90D00303807840018309D
:100BF800393D80388500003FA000013FA10043082F
:100C0800A3004208A2009631CD26843120080F396E
:100C1800BC003C08033E84009B300318013E85005D
:100C28000008C70047089531DD258431FF302000D2
:100C3800B8003808C007400A03192B2C4408C039EB
:100C4800003A0319CE2D803A0319F32D403A0319BF
:100C5800CE2D162E162E0800CE0021005D08031991
:100C680008008B135C082000CD002100DD018B17E4
:100C7800200065080319C82E24304D06031D902E48
:100C880037306F02031808000130CA004A08EF071E
:100C98003230AE009B30AF006F08CA00CB014A0863
:100CA800B0004B08B1008431292486318F302600EA
:100CB8008E00E03025008E002B308D001630802EFF
:100CC80010306F02031C08000130EF023230AE0012
:100CD8009B30AF006F08CA00CB014A08B0004B0830
:100CE800B100843129248F3026008E00E0302500A1
:100CF8008E0049308D00253026008C002000E80148
:100D08000130E7006430DF000030E000643021008B
:100D1800E3000030E40008002E304D060319642E6D
:100D280032304D06031D08006F08A00000309631D0
:100D380051268631B0302000AE009A30AF006F08DF
:100D4800CA00CB014A08B0004B08B10084312924FD
:100D58008F3026008E00E03025008E002D308D006B
:100D6800173026008C0003302000E8000130E7002F
:100D78005030DF000030E00050302100E300003048
:100D8800E4002000E5010800CC015F0860040319B5
:100D9800D62E68030319D42E02306806031DD62EFA
:100DA800CC01CC0A4C08CF00BF2F4F08031D080008
:100DB8008F3026008E00E03025008E002000640869
:100DC800031D0B2F0130E8000130E7003230DF004F
:100DD8000030E00032302100E3000030E400493008
:100DE80025008D00253026008C0001302000E4000D
:100DF8000130EE0048088600870181014908860015
:100E080087010030C03FC13F8C31E6240800023022
:100E1800E8000130E7003230DF000030E000323017
:100E28002100E3000030E4002F3025008D00183049
:100E380026008C002000E401480886008701810113
:100E4800082F64080319080006306E02031808000A
:100E58000130CA004A08EE078C31E62486312000AA
:100E68004F08031D08008F3026008E00E030250053
:100E78008E002000E8010130E7006430DF00003018
:100E8800E00064302100E3000030E4002B3025004E
:100E98008D00163026008C0008006408031908002D
:100EA80002306E02031C08000130EE028C31E62489
:100EB800863120004F08031D08008F3026008E0061
:100EC800E03025008E002000E8010130E7006430A2
:100ED800DF000030E00064302100E3000030E4006F
:100EE800493025008D00253026008C000800630855
:100EF800031D08000130E300302F630803190800C0
:100F0800E3015A2F4E08860087011E30010203189C
:100F180008000130CA004E08860087014A08810788
:100F2800342F4E08860087010108031908004E086F
:100F380086008701013081025E2F4F08031D0800DB
:100F48008F3026008E00E03025008E002000E8015A
:100F58000130E7006430DF000030E0006430210039
:100F6800E3000030E4002D3025008D001730260006
:100F78008C000800A12F4D08103A03197B2F023A64
:100F88000319252F063A0319512F023A0319952FF1
:100F98000E3A0319862F023A0319D92E3E3A03193D
:100FA800BE2F0C3A0319BE2F063A0319A12F1C3A7B
:100FB8000319BE2F703A0319812FE22F0800A401EC
:100FC800A501201CEB2F2208A4072308A53D01300A
:100FD800A235A30D890BEC2F0130A136A00C890B8B
:100FE800F12F20082104031DE52F2508A10024085E
:080FF800A000080001340034E0
:101002006400800101310130FE020030FF3B7F08A5
:101012007E04031900340228603031008D0006304E
:101022009300243091003E00B801C3010430CE0089
:10103200D001D101103020009100920104309300C0
:101042002E309600FF309700803098003E00B901A4
:10105200C401CF013C1226008E0127008E019201AD
:1010620025008E0194019A018F0195019B01910146
:1010720097019D018C01920198013100970199011C
:101082009B019A0110303E00A60017303D00CB00B4
:101092009531902508000030B8000030B7000030CC
:1010A200B6000030B5002F082E042D042C040319BD
:1010B2009528B901B90AAF1B6A280130AC35AD0DCC
:1010C200AE0DAF0D890B5F280130B4003408B907AB
:1010D2005C280130B535B60DB70DB80D890B6B28FC
:1010E2002F083302031D7F282E083202031D7F289A
:1010F2002D083102031D7F282C083002031C8A2888
:101102002C08B0022D08B13B2E08B23B2F08B33B8E
:1011120035140130AF36AE0CAD0CAC0C890B8B28FC
:101122000130B902031D6A283808AF003708AE0043
:101132003608AD003508AC00080020006408031D25
:10114200AF282100CE01CF01CC01CD012000E10169
:101152002100CA01CB012000161008000330210033
:10116200CE070030CF3D0330CA070030CB3D0330FD
:101172004B02E83003194A02031CC728E830CA02AE
:101182000330CB3B0130CC070030CD3D00304F0265
:101192000A3003194E02031CDB280A30CE0200304B
:1011A200CF3B01302000A0002008E1070A30610295
:1011B2000318E101053021004D02DC3003194C0215
:1011C200031CE5283230F62804304D02B0300319F2
:1011D2004C02031CEE281E30F62802304D02583015
:1011E20003194C02031CF92814302000A100FB282B
:1011F2002000A1012108031D002916100800143047
:101202002106031D0E290230610203180B2920005A
:10121200161408002000161008001E302106031DB7
:101222001C29033061020318192920001614080032
:1012320020001610080032302106031D0800053078
:101242006102031827292000161408002000161036
:101252000800A800640803193429ED01ED0A2100F1
:10126200D201D3014A2901302100D2070030D33DF7
:10127200003053029C3003195202031C4A29D20146
:10128200D30120006D08031D48290130492900308F
:10129200ED00FF3020009700161596158530890B5A
:1012A200502900002000650803196D0803196829F8
:1012B2000A30A00028089531F7258931143E8400B0
:1012C2009B300318013E85000008970096100B30F2
:1012D2002000A5006230890B6C29A50B6C29000047
:1012E20020009614FF309700961496158530890BCE
:1012F200782900002000650803196D080319902958
:101302000A30A0002808963130268931143E840024
:101312009B300318013E85000008970016110B3020
:101322002000A5006230890B9429A50B94290000A6
:1013320020001615FF309700961416158530890B7C
:10134200A029000020006508031DC82964080319AC
:10135200C829A901AA016E082A020318C02901306E
:10136200A5002A0AB529A535890BB4292508A600A6
:101372002608A9040130A5002508AA07AC2963089C
:101382000319C529A917C62929172909D6296508C4
:10139200031DDA296D080319DA29A7016308031965
:1013A200D429A717D52927172709AB002B0897009F
:1013B20096110B302000A5006230890BDE29A50BA7
:1013C200DE2900002000961508002E00101CEE29D0
:1013D20010103030FB007530012A24000C08F50093
:1013E2000D08F6007508F000F1017608F200F3012D
:1013F2007208F300F20170087204FB0071087304B2
:10140200FC0001307C02903003197B02031C0800AF
:1014120024008D018C0161307C02A93003197B020A
:10142200031CA62A01302100DF00080017307C02CD
:10143200713003197B02031C332A55307C02F030D1
:1014420003197B020318332A0030C7000030C6009C
:101452000030C5000030C400DE010230DF00013080
:10146200DB0008000130DA007C08C9007B08C800F4
:101472000330DF00080001307C02903003197B0248
:10148200031C522A05307C02DC3003197B0203184C
:10149200522A0130C736C60CC50CC40C890B4B2A24
:1014A200722A05307C02DC3003197B02031C692A94
:1014B2000D307C02AC3003197B020318692A01301B
:1014C200C736C60CC50CC40C890B612AC717722A11
:1014D2000230DA007C08C9007B08C8000330DF0054
:1014E20008000130F0007008DE0720305E02031CA5
:1014F20008004508F9004408F8004608FA004708C1
:10150200F70011307806EE3003197906031D952A8B
:1015120077087A06F000700A031D952A7A08DC0023
:101522000130DD00DF0108000530DA007908C9006A
:101532007808C8000330DF0008001F307C0240300A
:1015420003197B02031C0800132A21005F08003ADA
:101552000319132A013A0319172A033A03193C2AD9
:10156200013A03199E2AB52A080020005F08600488
:10157200031908002100640820006006031DC52A23
:101582002100630820005F06031DCD2A8F3026004C
:101592008E00E03025008E0001302000DF02003096
:1015A200E03B0230A0000030A10025000D08013E02
:1015B2002000A200003003180130A3009731AF27AA
:1015C2008A312008BE005F086004031D7F2B680378
:1015D200031D202B6703031D002B0230E70032306E
:1015E200DF000030E00032302100E3000030E40090
:1015F200383025008D001C3026008C000800023097
:101602006706031D162B0330E7007830DF00003039
:10161200E00078302100E3000030E4002F302500A4
:101622008D00183026008C000800E70126008E018C
:1016320025008E0126008C012000181008000230BF
:101642006806031D472B67030319EE2A023067065B
:10165200031D3D2B0330E7007830DF000030E0004F
:1016620078302100E3000030E400493025008D008D
:10167200253026008C000800E70126008E01250097
:101682008E0126008C012000181008000330680625
:10169200031D722B6703031D5C2B0230E700283009
:1016A200DF000030E00028302100E3000030E400D9
:1016B20026008C01080002306706031D722B0330DE
:1016C200E7006430DF000030E00064302100E30016
:1016D2000030E400233025008D00123026008C00FB
:1016E2000800E70126008E0125008E0126008C01EC
:1016F200200018102D3025008D00080021006308FD
:101702002000AC00210064082000AD00AE01AF0152
:101712005F08A0006008A100A201A3013E08BA0070
:10172200BB01BC01BD013D08A7003C08A6003B0867
:10173200A5003A08A40096319E268A312308B300F8
:101742002208B2002108B1002008B00088314C20E4
:101752002C0826008C000800EC2B6308031DB52B17
:10176200F430C8000130E72BEE30C8000230E72B1E
:101772006308031DC02BE830C8000330E72BDC30C0
:10178200C8000530E72B63080319C02BCA30C80014
:101792000830E72B6308031DD22BD030C800073076
:1017A200E72BB830C8000B30E72B6308031DDD2B95
:1017B200C430C8000930E72BA630C8000E30E72B32
:1017C20063080319D22B9430C8001130C900002CD1
:1017D200C801C901002C6E08013A0319AE2B033A65
:1017E2000319B92B013A0319C42B073A0319CB2B5E
:1017F200013A0319D62B033A0319E12BE92B0130E5
:101802004902F53003194802031CDF2C2100590854
:101812002000C700210058082000C6000030AF0099
:101822000030AE000030AD000A30AC00210050089C
:101832002000A000210051082000A100A201A30164
:101842000030A7000030A6000030A5000B30A40035
:1018520096319E268B312308B3002208B20021085C
:10186200B1002008B00088314C208B312D0847028E
:10187200031D3D2C2C084602031C742C0030AF00C3
:101882000030AE000030AD000A30AC006B08A000A2
:101892006C08A100A201A3010030A7000030A6003D
:1018A2000030A5000D30A40096319E268B3123080E
:1018B200B3002208B2002108B1002008B00088312C
:1018C2004C208B312D08EC002C08EB006C084902EF
:1018D200031D6D2C6B0848020318D72C4908EC0035
:1018E2004808EB00D72C0030AF000030AE000030CB
:1018F200AD000A30AC00210050082000A0002100F9
:1019020051082000A100A201A3010030A70000306D
:10191200A6000030A5000930A40096319E268B3126
:101922002308B3002208B2002108B1002008B00049
:1019320088314C208B312D084702031DA22C2C0824
:1019420046020318D72C0030AF000030AE00003042
:10195200AD000A30AC006B08A0006C08A100A20127
:10196200A3010030A7000030A6000030A500073018
:10197200A40096319E268B312308B3002208B200C0
:101982002108B1002008B00088314C208B312D088D
:10199200EC002C08EB0001306C02F43003196B02EE
:1019A2000318D72CF430EB000130EC00470821007B
:1019B200D100200046082100D000E32CF430EB00D7
:1019C2000130EC008C31E624080020006408031981
:1019D200FE2C21006108031DFE2CF4302000EB00D8
:1019E2000130EC001230973171278C31210821002F
:1019F200D100200020082100D00020006408031D2F
:101A02000E2D2100610803190E2DF4302000EB0089
:101A12000130EC002100D001D10120006408210036
:101A2200E100200064080319192D65080319232D0C
:101A32003E00A1012000981027008D018C01910128
:101A4200900108000030AF000030AE000030AD0061
:101A52006430AC006F08BA00BB01BC01BD010530A7
:101A6200BA35BB0DBC0DBD0D890B312D3D08B30040
:101A72003C08B2003B08B1003A08B00088314C2063
:101A82008C312D08BF002C08BE003F08BB003E0869
:101A9200BA00BB36BA0CBB36BA0C3A0827008D0026
:101AA20020003E080339BA000530BA35FF3E031D57
:101AB200562D3A3527008C009C2D6308031D652D99
:101AC200F430C4000130972DEE30C4000230972D5F
:101AD2006308031D702DE830C4000330972DDC30FD
:101AE200C4000530972D63080319702DCA30C40055
:101AF2000830972D6308031D822DD030C4000730B3
:101B0200972DB830C4000B30972D6308031D8D2D1F
:101B1200C430C4000930972DA630C4000E30972D72
:101B220063080319822D9430C4001130C500B12D11
:101B3200C401C501B12D20006E08013A03195E2DC2
:101B4200033A0319692D013A0319742D073A03194F
:101B52007B2D013A0319862D033A0319912D992DF4
:101B62001E30210060020318BC2D01302000BA0093
:101B72003A082100E0071E306002031CCC2D12300F
:101B8200973171278C3121082100D90020002008CB
:101B92002100D800E00120006C08C3006B08C200DD
:101BA20043084502031DD72D420844020318DD2DC8
:101BB2004508C3004408C20001304302F43003194F
:101BC20042020318E82DF430C2000130C300003095
:101BD200AF000030AE001330AD008830AC004208D8
:101BE200A0004308A100A201A3010030A700003019
:101BF200A6000230A5007030A40096319E268C31DA
:101C02002308B3002208B2002108B1002008B00066
:101C120088314C208C312D08C1002C08C0004108AD
:101C2200BB004008BA00BB36BA0CBB36BA0C3A0845
:101C320027009100200040080339BA000530BA3568
:101C4200FF3E031D202E3A352700900020009310FE
:101C52001B303E00A1000800CC00660803191818CA
:101C6200372E973101278E31CA00382ECA01CD0195
:101C72004D08013EC800003003180130C9004A086F
:101C820048064904031DCC2F4D08BE3E860087013D
:101C92000A30010203186E2F0130C8004D08BE3E03
:101CA20086008701480881074D08BE3E86008701ED
:101CB2000A300106031DF62F4D08B83E8600870143
:101CC2000108031DF62F4D08B83E860087018101E9
:101CD200810A4D35AC3E860087010030C03FC13FCE
:101CE2004D35A03E860087010030C03FC13F6508E8
:101CF200031DF62F4D08031DD32E5F086004031940
:101D0200892E68030319F62F023068060319F62F8D
:101D12008F3026008E00E03025008E0020006408FF
:101D2200031DB92E0130E8000130E7003230DF0038
:101D32000030E00032302100E3000030E40049309E
:101D420025008D00253026008C0001302000E400A3
:101D52000130EE00460886008701810147088600AF
:101D620087010030C03FC13F8C31E6248E31F62F0F
:101D72000230E8000130E7003230DF000030E000DE
:101D820032302100E3000030E4002F3025008D00C6
:101D9200183026008C002000E401460886008701E6
:101DA2008101B52ECB014D03031DDF2E6308031DF8
:101DB200DC2E0130DD2E0030E300212F02304D06F3
:101DC200031DF42E4C08860087011E300102031801
:101DD200262F0130C8004C08860087014808810779
:101DE200CB01CB0A262F03304D06031D042F4C08CE
:101DF2008600870101080319262F4C0886008701F7
:101E020001308102F12E04304D06031D142F6408A7
:101E12000319262F06306E020318262F0130C80040
:101E22004808EE07212F05304D06031D262F6408B2
:101E32000319262F02306E02031C262F0130EE02F8
:101E4200CB01CB0A8C31E6248E3120004B080319DA
:101E5200F62F5F086004031DF62F5F086004031964
:101E6200392F68030319F62F023068060319F62F7B
:101E72008F3026008E00E03025008E002000E80121
:101E82000130E7006430DF000030E0006430210000
:101E9200E3000030E400023020004D060319552F04
:101EA20004304D06031D5A2F2B3025008D001630AD
:101EB2006B2F03304D060319622F05304D06031DAB
:101EC200672F493025008D0025306B2F2D302500DE
:101ED2008D00173026008C00F62F02304D060319B4
:101EE200762F03304D06031DF62F4D35AC3E86008E
:101EF20087010130810741310318810A4D35AC3E1B
:101F020086008701403FC800413FC90000304902B6
:101F1200963003194802031CF62F4D35A03E860069
:101F220087010130810741310318810A4D35A03EF6
:101F320086008701403FC800413FC9000030490286
:101F42001E3003194802031CF62F4D35A03E8600B1
:101F520087010030C03FC13F02304D06031DC02F34
:101F62004C08860087011E3001020318F62F01304B
:101F7200C8004C088600870148088107F62F033005
:101F82004D06031DF62F4C08860087010108031930
:101F9200F62F4C08DE2F5F086004031DF62F260083
:101FA2000E08031DF62F20004D08BE3E8600870155
:101FB20001080319E32F4D08BE3E86008701013058
:101FC2008102F62F4D08B83E8600870181014D350A
:101FD200AC3E860087010030C03FC13F4D35A03E78
:101FE200860087010030C03FC13F01302000C80099
:0E1FF2004808CD0706304D0203180800392EAE
:102B1600F4340134013401342D3421009A01943007
:102B2600930094019501960199011F309D000800BC
:102B3600A100A0013A3021020318A72D303021024E
:102B4600031CA72DA001A00A200C080001302400B8
:102B5600910033308E008F018D018C013E003D12B5
:102B66003E163F122E0016160B178B170800A000F4
:102B7600BD2D2000640030009E18BC2D1E172000BD
:102B8600200830009A0070309B001E141C080800B4
:102B960022009E1624309E0008309F0003309C00C1
:102BA60040309B0003309C0090309D002E0019128F
:102BB60099160800A2006A08013E7F39A30023087F
:102BC6007D06031908006A08703EA000A1012330A3
:102BD600A13D2008860021088700220881002308DD
:102BE600EA002E0019160800A2000830A300A4016E
:102BF6002208A1000730A136890BFE2D24352104B9
:102C0600A4000310A20D20082402031C0C2E200889
:102C1600A4020130A302031DFB2D24080800131093
:102C2600181026008E0125008E018F0191018C015E
:102C360024001E08FC3901389E0001302500900052
:102C46002D308D0026008C018D0125008E01260079
:102C56008E0109303E00A0000800A200A401200851
:102C660003194F2EA301A30AA01B402E0310A00D8B
:102C76000130A1002108A307372E0310A40D200858
:102C86002202031C4A2E2008A20224140310A00CC0
:102C96000130A302031D402E24080800A1003000C5
:102CA6009E18522E1E172000210830009A00703000
:102CB6009B009D012000200830009C0003108B1B08
:102CC60003148B131E1555309F00AA309F009E14C7
:102CD6009E186B2E1E11031C08008B17080028086F
:102CE60029040319992EAD01AD0AA91B842E0130C2
:102CF600A835A90D890B7B2E0130AC002C08AD0739
:102D0600782E29082B02031D8A2E28082A02031C66
:102D1600902E2808AA022908AB3B0130A936A80C38
:102D2600890B912E0130AD02031D842E2B08A900BC
:102D36002A08A80008000030AB000030AA000030C6
:102D4600A9000030A800201CB02E2408A8072508DA
:102D5600A93D2608AA3D2708AB3D0130A435A50D9F
:102D6600A60DA70D890BB12E0130A336A20CA10C1E
:102D7600A00C890BB82E2308220421042004031D6D
:102D8600A62E2B08A3002A08A2002908A1002808BD
:102D9600A0000800A501A601200821040319FC2EA5
:102DA600A701A70AA11BE12E0130A035A10D890BB1
:102DB600D82E0130A4002408A707D52E0130A5354A
:102DC600A60D890BE22E21082302031DEC2E2008F6
:102DD6002202031CF32E2008A2022108A33B25147D
:102DE6000130A136A00C890BF42E0130A702031D79
:102DF600E12E2608A1002508A0000800A001FF304A
:102E060097009614161596158530890B082F000025
:102E16002000931398133F3092000D30890B112F29
:102E2600000020000D083F39A10021181D2FA00128
:102E3600A00A312FA118212F0230302F2119252F5A
:102E46000330302FA119292F0430302F211A2D2FAE
:102E56000530302FA11A312F0630A00092019817A5
:102E66009317200808002500920195019701980103
:102E76009B019D0124001F08F33908389F0001308B
:102E8600250096000730930080309400803027009C
:102E96008E008D018C0124001F08CF3930389F0029
:102EA600053025009C009B30990080309A008030C8
:102EB600270092009101900180303100970098011F
:102EC6000830990009309B009A0113303D00B80084
:102ED6003E00A10120009310981008002000A600D3
:102EE60026083F3921009E0000302000AA0000304D
:102EF600A9000030A8000030A700AB010D30890BF7
:102F0600822F0000210013141318872F0C082000AD
:102F1600A70721000D082000A83D0030A93DAA3DC5
:102F26000130A2002208AB0710302B02031C812FB0
:102F36002708A2002808A3002908A4002A08A5003B
:102F46000430A536A40CA30CA20C890BA42F2308CD
:102F5600A1002208A0000800A601A11FB92FA00900
:102F6600A109A00A0319A10AA601A60AA31FC42F34
:102F7600A209A309A20A0319A30A0130A40024087E
:102F8600A606A701A801200821040319F32FA5010D
:102F9600A50AA11BD82F0130A035A10D890BCF2F73
:102FA6000130A4002408A507CC2F0130A735A80DB1
:102FB600890BD92F21082302031DE32F20082202A3
:102FC600031CEA2F2008A2022108A33B2714013084
:102FD600A136A00C890BEB2F0130A502031DD82FBB
:102FE60026080319FB2FA709A809A70A0319A80A87
:102FF6002808A1002708A000080001340034103476
:1030060000340034013400341034423475347A34D8
:103016007A346534723420342834523443343034AC
:10302600293420342D343E342034503457344D3432
:10303600203443346F346E34743469346E347534EA
:103046006F3475347334203453346F3475346E34BE
:10305600643420344F344E342034283432342E3401
:1030660037346B3448347A3429340D340A34003416
:10307600423475347A347A346534723420342834E0
:10308600523443343034293420342D343E34203401
:10309600533479347334743465346D342034523493
:1030A6006534733474346F347234653464342C3458
:1030B6002034423475347A347A34653472342034A8
:1030C600533469346C3465346E3474340D340A34D4
:1030D6000034693473345F34723475346E346E344C
:1030E60069346E3467343D34253475342034733492
:1030F60065347434743469346E3467345F346D34D3
:103106006F34643465343D34253475342034643486
:1031160065346234753467345F3474346F346734BD
:1031260067346C3465343D34253475340D340A34D3
:10313600003444346534653470342034483465349E
:103146006134743465347234203442346F346134FB
:1031560072346434203469347334203441344C344A
:103166004934563445342034283441347334793460
:103176006E34633420345534413452345434293453
:1031860021340D340A34003443344334503431345A
:1031960043344F344E343D3425343034323458348D
:1031A60020345434323443344F344E343D34253491
:1031B60030343234583420345034523432343D347E
:1031C6002534753420344334433450345234313446
:1031D6004C343D34253475340D340A3400344234CD
:1031E60075347A347A34653472342034283452345F
:1031F60043343034293420342D343E3420343134B1
:103206007334203454346F34673467346C34653423
:1032160020344D346F346434653420344F344634AE
:1032260046340D340A3400345B3442344F344F3460
:1032360054345D342034423475347A347A34653407
:103246007234203444346934613467346E346F34F4
:1032560073347434693463342034533474346134CD
:10326600723474342E342E342E340D340A34003431
:10327600423475347A347A346534723420342834DE
:10328600523443343034293420342D343E342034FF
:1032960031347334203454346F34673467346C34C7
:1032A600653420344D346F346434653420344F34FF
:1032B6004E340D340A3400344C34413454344334DF
:1032C6003D34253430343234583420345434523476
:1032D6004934533443343D3425343034323458344D
:1032E60020345234433430345034503453343D3423
:1032F60025343034323458340D340A3400345434DE
:1033060052344934533443343D3425343034323422
:10331600583420344C344134543443343D34253409
:10332600303432345834203441344E3453343D34FE
:1033360025343034323458340D340A3400345B3496
:1033460042344F344F3454345D342034423475346F
:103356007A347A34653472342034443469346134CE
:1033660067346E346F3473347434693463342034A0
:1033760044346F346E3465340D340A3400344334C7
:103386004334503431343D342534303432345834B7
:103396002034543432343D342534303432345834C5
:1033A60020345034523432343D342534753420348C
:1033B60044343D34253475340D340A3400344234F3
:1033C60075347A347A34653472342034283452347D
:1033D60043343034293420342D343E3420344834B8
:1033E6004934473448342034283435345634293463
:1033F6000D340A340034423475347A347A34653400
:10340600723420342834523443343034293420344E
:103416002D343E3420344C344F3457342034283441
:103426003034563429340D340A34003445346E347D
:1034360074346534723469346E34673420345334EA
:1034460065347434743469346E34673420344D34DE
:103456006F34643465342E342E342E340D340A34ED
:103466000034503457344D3436343D3425343034FA
:10347600323458342034543434343D3425343034E2
:103486003234583420345034523434343D342534B4
:1034960075340D340A34003446344F344F345434C2
:1034A6005F34533445344E342034283441344E345A
:1034B60043343234293420344134443443343A34A6
:1034C6002034253475340D340A34003454343234FF
:1034D60043344C344B343D34253430343234583450
:1034E60020345434343443344C344B343D34253452
:1034F6003034323458340D340A3400345B344434B6
:10350600423447345D34203454346F34673467347E
:103516006C346534203452344334303420343D34F2
:103526002034253464340D340A3400344F34533493
:10353600433445344E343D342534303432345834F3
:10354600203453345434413454343D3425343034E7
:10355600323458340D340A340034533461347634FA
:1035660065346434203474346F342034453445343F
:10357600503452344F344D343A3420342534643484
:103586000D340A34003454344D34533430343D341D
:103596002534303432345834203454344D34533492
:1035A60031343D3425343034323458340D340A3411
:1035B60000345234433430343D34253430343234DC
:1035C600583420345234433436343D342534303480
:1035D600323458340D340A3400343D343D343D34ED
:1035E60020345234453447342034443455344D3431
:1035F600503420343D343D343D340D340A340034E7
:103606003034313432343334343435343634373478
:1036160038343934413442344334443445344634FE
:103626000034C034F934A434B0349934923482343A
:10363600F8348034903488348334C634A1348634E4
:103646008E3443344C344934203443346D3464343A
:103656003A342034253463340D340A34003450347B
:1036660057344D3420345334653474343A3420346A
:10367600253464340D340A340034933401348B34E5
:103686000234073403344534033464340334643475
:10369600033436340134D13401346C340234C93441
:1036A600023407340334263403343D343D343D3488
:1036B60045344E3444343D343D343D340D340A34BF
:1036C6000034013400340A34003464340034E834FD
:0636D60003341034273418
:020000040001F9
:0A000E008C1FFF379F3FFF3FFF3FAD
:00000001FF
