:0400000080313628ED
:100008007E1480312E00191A0F1E1F2820006A083E
:100018007D0603191D287D08703E86008701233060
:10002800873D010822009A007D08013E7F39FD00C6
:100038001F282E0019122E00991A8F1E2E28220012
:1000480019082000E9000130E80022009D1C2E2834
:100058001D121D163E003F1E34283F128A312322EE
:100068007E10090080313828A13084009630850040
:100078001200EB001200EC001200ED001200EE007E
:100088001200EF0021008731FC278031D60087312C
:10009800FD278031D7007030840023308500803000
:1000A800FE000030FF009631A6268031FD015F304A
:1000B8008400003085000C30FE000030FF009631CF
:1000C800A6268031A0308400003085003630FE003E
:1000D8000030FF009631A6267E102000803174285B
:1000E8008831D820803188315F208031973132279C
:1000F80080318731EA2780319631C026803120004F
:1001080096169614161596156130AE009830AF0005
:100118008331C1238031DC30AE009830AF008331A9
:10012800C1238031013024009E008F3026008E00CC
:10013800E03025008E002D308D00173026008C0011
:1001480009302000D1001E30D000E430890BAA28E5
:10015800D00BAA28D10BAA28000026008C018E01FA
:1001680025008E01200018106730AE009930AF00CE
:100178008331C123803105302000D1000F30D000F9
:10018800F130890BC528D00BC528D10BC528B43050
:100198002000AE009A30AF008331C1238031873010
:1001A800AE009930AF0026000E082000D000D10123
:1001B8005008B0005108B10025000E082000D200F8
:1001C800D3015208B2005308B30025000D082000DF
:1001D800D400D5015408B4005508B50026000C0811
:1001E8002000D600D7015608B6005708B70083315B
:1001F800C12380318A30AE009A30AF0024001E0837
:100208002000D000D1015008B0005108B1002400EE
:100218001F082000D200D3015208B2005308B300CF
:100228008331C12380312D30AE009A30AF002500D4
:1002380010082000D000D1015008B0005108B100CA
:10024800250016082000D200D3015208B200530836
:10025800B3008331C123803107302000D10017302B
:10026800D0006A30890B3629D00B3629D10B3629B4
:100278000000F9302000AE009930AF0027000E08CA
:100288002000D000D1015008B0005108B10025006D
:1002980014082000D200D3015208B2005308B3005A
:1002A800250013082000D400D5015408B4005508CF
:1002B800B5008331C1238031A030AE009A30AF0041
:1002C8003E0020082000D000D1015008B00051089D
:1002D800B1003E0026082000D200D3015208B20027
:1002E8005308B3008331C12380314730AE009930C1
:1002F800AF001308D000D1015008B0005108B10078
:100308001808D200D3015208B2005308B3003E00C7
:100318004E082000D400D5015408B4005508B50093
:100328008331C12380315D30AE009A30AF00310097
:1003380011082000D000D1015008B0005108B100C8
:10034800310010082000D200D3015208B20053082F
:10035800B3008331C12380311C30AE009B30AF0025
:100368008331C123803100309631D126803120007D
:10037800EF0014306F02031CC52942306F02031CC2
:10038800C7292D30EF001D30DD00DC01DA01DB016B
:10039800931398133F3092001A30890BD1290032F9
:1003A80020000D080339031D0C2A0130E400DE305B
:1003B800AE009930AF008331C1238031F630AE00F2
:1003C8009A30AF006F08D000D1015008B000510832
:1003D800B1008331C12380318F3026008E00E03098
:1003E80025008E00013024009E002D3025008D0050
:1003F800173026008C002000E7010130E600C830E5
:10040800DF000030E000C8302100D6000030D700FF
:1004180020009201981793178D311B2580312000F9
:10042800680803192B2BE8016908DE00E830AE00E4
:100438009A30AF005E08D000D1015008B0005108D2
:10044800B1008331C123803148305E060319302A58
:1004580068305E06031D3B2AE5013E00A0015010EE
:10046800511020001814A730AE009930272B4C30BB
:100478005E060319432A6C305E06031D4E2AE50109
:100488003E00A0015010511020001810C330AE00DB
:100498009930272B54305E060319562A74305E06AD
:1004A800031D6F2A6508031D5B2A01305C2A003092
:1004B800E500650803196A2A3E00A0015010511092
:1004C800200018140030AE009930272B1810B730D0
:1004D800AE009830272B50305E060319772A70300B
:1004E8005E06031D8F2AE5018F3026008E00E0305E
:1004F80025008E0009303E00A0002D3025008D001B
:10050800173026008C003E00501051100830200093
:10051800AE009030272B52305E060319972A7230AE
:100528005E06031D102BB430AE009A30AF00833145
:10053800C12380312430AE009930AF001808D000B4
:10054800D1015008B0005108B1001308D200D301FE
:100558005208B2005308B3003E0020082000D4001F
:10056800D5015408B4005508B5008331C123803142
:100578008C30AE009830AF0026000E082000D00066
:10058800D1015008B0005108B10025000E08200024
:10059800D200D3015208B2005308B30025000D0859
:1005A8002000D400D5015408B4005508B500260031
:1005B8000C082000D600D7015608B6005708B70027
:1005C8008331C12380313130AE009830AF006308E9
:1005D800D000D1015008B0005108B1006408D20021
:1005E800D3015208B2005308B3006508D400D501FE
:1005F8005408B4005508B5008331C1238031143044
:10060800AE009A30AF00003088319A20803121083E
:10061800B1002008B000282B53305E060319182BB0
:1006280073305E06031D2B2BE5013E00A001200060
:10063800181026008E018C013E0050105110003019
:100648002000AE009830AF008331C12380316308A9
:10065800031D312B20009616332B200096126408B8
:10066800031D382B5D08392B6F08D000D1015008C5
:10067800D8005108D90058088931672180316408A9
:10068800031D132A0330DA070030DB3D03305B0219
:10069800E83003195A02031CAC2BE830DA020330A5
:1006A800DB3B650803196C2B013098064530AE001A
:1006B8009A30AF000310181803140030093DD00019
:1006C800D1015008B0005108B1008331C1238031F5
:1006D80063080319AC2B5D0803195C080319812B07
:1006E8005C08031D7F2B5D080319812B0130DD0297
:1006F8003B30DC00812B0130DC025D08031DA92B97
:100708005C08031DA92BE301DC018D311B25803119
:100718008F3026008E00E03025008E0009303E0024
:10072800A0002D3025008D00173026008C002000F9
:10073800E7010130E600C230DF000130E000C230DE
:100748002100D6000130D700AC2B8B31EA23803151
:100758005C302000C6005A30C7005D308531C8259E
:1007680080315C30C8005A30C9005D308E314F2668
:1007780080318A31F3228031102A3030C1002000C4
:100788002F08B9002E08B800AE0A0319AF0A3808B6
:100798008400390885000008C700470803190800C5
:1007A800253047060319DD2B47089631E2268331A9
:1007B800C32BC501C601C401E62B44150130AE07A1
:1007C8000030AF3D2E0884002F0885000008303A1D
:1007D8000319E12BEF2B2E0884002F088500000851
:1007E8009631B2268331031C732CC501C6010A3029
:1007F800A0000030A1004608A3004508A2009731D8
:10080800172783312108C6002008C5002E08840058
:100818002F0885000008D03EB800FF3003180030CC
:10082800B9003808C5073908C63D0130AE070030A1
:10083800AF3D2E0884002F08850000089631B226A7
:100848008331031C732CFB2BC417962C00304602F3
:10085800023003194502031C362CFF30C507FF3050
:10086800C63D382CC501C601FF302000C507FF3042
:10087800C63D450A0319460A0319532C2030963100
:10088800E2268331382C3D0886008701010896311D
:10089800E226833101302000B8003808BD07013056
:1008A800BE020030BF3B3E0A031D472C3F0A031916
:1008B800C32B472C4108860087010108C700023076
:1008C800B8003808C1074730BD000130BE0000300D
:1008D800BF002A2CC030B8003808C404962C2F0852
:1008E800B9002E08B800AE0A0319AF0A3808840008
:1008F800390885000008C700003A0319C72D583A7F
:100908000319282C3B3A03195E2C073A0319962C35
:100918000D3A0319962C1C3A03196E2C0D3A03193B
:10092800282C672C4408C039031DB12C41088600C7
:100938008701403FC200413FC3000230B800380879
:10094800C107C31F032D0330B8003808C404C20907
:10095800C309C20A0319C30A032D41088600870187
:10096800403FC200413FC3000230B8003808C10709
:10097800032DC701C70A0530470603190F2D47087D
:10098800B800B901B835B90D2830380784001B30D4
:10099800393D80388500003FBA00013FBB003B0865
:1009A8004302031DD92C3A084202031C0F2D0130C3
:1009B800B8003808C707BF2CC701C70A0430470664
:1009C80003190F2D4708B800B901B835B90D003023
:1009D800380784001030393D80388500003FBA0060
:1009E800013FBB003B084302031DFC2C3A084202AE
:1009F800031C0F2D0130B8003808C707E22C440843
:100A0800C039003A0319BD2C803A0319E02C403A4A
:100A18000319BD2C0F2D4508460403191B2D440846
:100A2800033903191B2DFF30C507FF30C63D4608A3
:100A3800803A803C031D222D4508470203182D2DBE
:100A480020004708B800B9013808C5023908C63B74
:100A5800302D2000C501C601441D492D4408033925
:100A680003193A2D2D309631E226833120004508AE
:100A780046040319622D30309631E2268331FF3067
:100A88002000C507FF30C63D3B2D45084604031925
:100A98005A2D20309631E2268331FF302000C507D9
:100AA800FF30C63D45084604031D4D2D4408033953
:100AB8000319622D2D309631E22683312000470834
:100AC800C000B22D0A30A8000030A9004008B800C4
:100AD800B901B835B90D2830380784001B30393DC5
:100AE80080388500003FA000013FA1004308A30013
:100AF8004208A2009731CC2783312108AB00200897
:100B0800AA009731712783312808303EAD2D40085F
:100B1800B800B901B835B90D003038078400103075
:100B2800393D80388500003FA000013FA1004308FF
:100B3800A3004208A2009731CC27833120080F393F
:100B4800BC003C08C73E84009A300318013E85006B
:100B58000008C70047089631E2268331FF3020009D
:100B6800B8003808C007400A0319C32B4408C03925
:100B7800003A0319662D803A03198B2D403A031960
:100B8800662DAE2DAE2D0800CC0065080319181887
:100B9800D22D88312A208531CA00D32DCA01CD0132
:100BA8004D08013EC800003003180130C9004A084A
:100BB80048064904031D642F4D08BE3E8600870180
:100BC8000A3001020318062F0130C8004D08BE3E46
:100BD80086008701480881074D08BE3E86008701C8
:100BE8000A300106031D8E2F4D08B83E8600870186
:100BF8000108031D8E2F4D08B83E8600870181012C
:100C0800810A4D35AC3E860087010030C03FC13FA8
:100C18004D35A03E860087010030C03FC13F4D08DA
:100C2800031D6B2E5F0860040319212E6703031947
:100C38008E2F0230670603198E2F8F3026008E0004
:100C4800E03025008E0020006308031D512E01307E
:100C5800E7000130E6003230DF000030E0003230DB
:100C68002100D6000030D700493025008D002530FE
:100C780026008C0001302000E3000130EE00460819
:100C88008600870181014708860087010030C03F40
:100C9800C13F8D311B2585318E2F0230E700013091
:100CA800E6003230DF000030E00032302100D600AC
:100CB8000030D7002F3025008D00183026008C001A
:100CC8002000E30146088600870181014D2ECB01F3
:100CD8004D03031D772E6208031D742E0130752EF7
:100CE8000030E200B92E02304D06031D8C2E4C0850
:100CF800860087011E3001020318BE2E0130C8008D
:100D08004C088600870148088107CB01CB0ABE2E14
:100D180003304D06031D9C2E4C08860087010108F0
:100D28000319BE2E4C088600870101308102892EE6
:100D380004304D06031DAC2E63080319BE2E063081
:100D48006E020318BE2E0130C8004808EE07B92EFF
:100D580005304D06031DBE2E63080319BE2E023052
:100D68006E02031CBE2E0130EE02CB01CB0A8D3180
:100D78001B25853120004B0803198E2F5F0860045E
:100D8800031D8E2F5F0860040319D12E6703031912
:100D98008E2F0230670603198E2F8F3026008E00A3
:100DA800E03025008E002000E7010130E6006430C5
:100DB800DF000030E00064302100D6000030D700AA
:100DC800023020004D060319ED2E04304D06031D98
:100DD800F22E2B3025008D001630032F03304D06E0
:100DE8000319FA2E05304D06031DFF2E4930250044
:100DF8008D002530032F2D3025008D00173026005B
:100E08008C008E2F02304D0603190E2F03304D062D
:100E1800031D8E2F4D35AC3E8600870101308107BA
:100E280041310318810A4D35AC3E86008701403FA9
:100E3800C800413FC90000304902963003194802F2
:100E4800031C8E2F4D35A03E860087010130810797
:100E580041310318810A4D35A03E86008701403F85
:100E6800C800413FC900003049021E30031948023A
:100E7800031C8E2F4D35A03E860087010030C03FF1
:100E8800C13F02304D06031D582F4C0886008701CC
:100E98001E30010203188E2F0130C8004C0886004E
:100EA8008701480881078E2F03304D06031D8E2FBA
:100EB8004C0886008701010803198E2F4C08762FED
:100EC8005F086004031D8E2F26000E08031D8E2F59
:100ED80020004D08BE3E86008701010803197B2FBC
:100EE8004D08BE3E86008701013081028E2F4D08D5
:100EF800B83E8600870181014D35AC3E86008701EA
:100F08000030C03FC13F4D35A03E8600870100300C
:100F1800C03FC13F01302000C8004808CD07063057
:100F28004D0203180800D42D0030B8000030B70077
:100F38000030B6000030B5002F082E042D042C0414
:100F48000319E12FB901B90AAF1BB62F0130AC352F
:100F5800AD0DAE0DAF0D890BAB2F0130B4003408C9
:100F6800B907A82F0130B535B60DB70DB80D890BE7
:100F7800B72F2F083302031DCB2F2E083202031D73
:100F8800CB2F2D083102031DCB2F2C083002031C58
:100F9800D62F2C08B0022D08B13B2E08B23B2F08E3
:100FA800B33B35140130AF36AE0CAD0CAC0C890B2D
:100FB800D72F0130B902031DB62F3808AF00370804
:100FC800AE003608AD003508AC00080022009E16B9
:100FD80024309E0008309F0003309C0040309B0066
:100FE80003309C0090309D002E00191299160800BD
:040FF800013400348C
:1010000021009A0194309300940195019601990171
:101010000800A10030009E180A281E172000210891
:1010200030009A0070309B009D01200020083000A5
:101030009C0003108B1B03148B131E1555309F004F
:10104000AA309F009E149E1823281E11031C08001E
:101050008B170800A001FF309700961416159615FF
:101060008530890B312800002000931398133F30FE
:1010700092000D30890B3A28000020000D083F39FE
:10108000A10021184628A001A00A5A28A1184A2820
:101090000230592821194E2803305928A119522805
:1010A00004305928211A562805305928A11A5A28DF
:1010B0000630A00092019817931720080800250019
:1010C00092019501970198019B019D0124001F0841
:1010D000F33908389F00013025009600073093004F
:1010E00080309400803027008E008D018C01240018
:1010F0001F08CF3930389F00053025009C009B30F9
:10110000990080309A008030270092009101900170
:1011100080303100970098010830990009309B0019
:101120009A0113303D00B8003E00A1012000931049
:10113000981008002000A60026083F3921009E00D4
:1011400000302000AA000030A9000030A8000030C4
:10115000A700AB010D30890BAB2800002100131450
:101160001318B0280C082000A70721000D08200044
:10117000A83D0030A93DAA3D0130A2002208AB07DE
:1011800010302B02031CAA282708A2002808A3005D
:101190002908A4002A08A5000430A536A40CA30C35
:1011A000A20C890BCD282308A1002208A00008006A
:1011B000603031008D000630930024309100013002
:1011C0003E00B800C301CE01D001D1011130200092
:1011D0009100920193012E309600FF3097008030ED
:1011E00098003E00B901C401CF013C1226008E01D7
:1011F00027008E01920125008E0194019A018F0132
:1012000095019B01910197019D018C01920198012B
:101210003100970199019B019A0110303E00A60010
:1012200017303D00CB00883100200800A601A11F27
:101230002029A009A109A00A0319A10AA601A60A4A
:10124000A31F2B29A209A309A20A0319A30A01308B
:10125000A4002408A606A701A80120082104031958
:101260005A29A501A50AA11B3F290130A035A10DCE
:10127000890B36290130A4002408A5073329013041
:10128000A735A80D890B402921082302031D4A29EF
:1012900020082202031C51292008A2022108A33B96
:1012A00027140130A136A00C890B52290130A50268
:1012B000031D3F29260803196229A709A809A70ABF
:1012C0000319A80A2808A1002708A0000800A80000
:1012D000630803197129ED01ED0A2100CE01CF0148
:1012E000872901302100CE070030CF3D00304F026A
:1012F0009C3003194E02031C8729CE01CF01200028
:101300006D08031D8529013086290030ED00FF306E
:1013100020009700161596158530890B8D29000041
:101320002000640803196D080319A5290A30A000DC
:1013300028089631FC268931D83E84009A3003185B
:10134000013E85000008970096100B302000A50094
:101350006230890BA929A50BA92900002000961449
:10136000FF309700961496158530890BB52900003B
:101370002000640803196D080319CD290A30A00064
:101380002808973150278931D83E84009A300318B5
:10139000013E85000008970016110B302000A500C3
:1013A0006230890BD129A50BD12900002000161528
:1013B000FF309700961416158530890BDD29000043
:1013C00020006408031D052A63080319052AA901E2
:1013D000AA016E082A020318FD290130A5002A0A75
:1013E000F229A535890BF1292508A6002608A904AC
:1013F0000130A5002508AA07E92962080319022A75
:10140000A917032A29172909132A6408031D172A73
:101410006D080319172AA70162080319112AA717D3
:10142000122A27172709AB002B08970096110B30BB
:101430002000A5006230890B1B2AA50B1B2A000087
:101440002000961508002E00101C2B2A101030309A
:10145000FB0075303E2A24000C08F5000D08F6004C
:101460007508F000F1017608F200F3017208F3004C
:10147000F20170087204FB0071087304FC00013073
:101480007C02903003197B02031C080024008D01AC
:101490008C0161307C02A93003197B02031CE32A12
:1014A00001302100D500080017307C02713003198B
:1014B0007B02031C702A55307C02F03003197B023A
:1014C0000318702A0030C7000030C6000030C50085
:1014D0000030C400D4010230D5000130D100080032
:1014E0000130D0007C08C9007B08C8000330D5005B
:1014F000080001307C02903003197B02031C8F2A04
:1015000005307C02DC3003197B0203188F2A01307E
:10151000C736C60CC50CC40C890B882AAF2A053007
:101520007C02DC3003197B02031CA62A0D307C02EE
:10153000AC3003197B020318A62A0130C736C60C4B
:10154000C50CC40C890B9E2AC717AF2A0230D000E5
:101550007C08C9007B08C8000330D50008000130B2
:10156000F0007008D40720305402031C080045081E
:10157000F9004408F8004608FA004708F70011305F
:101580007806EE3003197906031DD22A77087A0609
:10159000F000700A031DD22A7A08D2000130D3006D
:1015A000D50108000530D0007908C9007808C800C6
:1015B0000330D50008001F307C02403003197B0245
:1015C000031C0800502A21005508003A0319502A2C
:1015D000013A0319542A033A0319792A013A0319E3
:1015E000DB2AF22A080020005F08600403190800C3
:1015F0002100570820006006031D022B2100560819
:1016000020005F06031D0A2B8F3026008E00E0307D
:1016100025008E0001302000DF020030E03B023068
:10162000A0000030A10025000D08013E2000A2000E
:10163000003003180130A300893116218A312008B7
:10164000BE005F086004031DBC2B6703031D5D2BF8
:101650006603031D3D2B0230E6003230DF00003010
:10166000E00032302100D6000030D70038302500AD
:101670008D001C3026008C00080002306606031D19
:10168000532B0330E6007830DF000030E000783084
:101690002100D6000030D7002F3025008D001830F3
:1016A00026008C000800E60126008E0125008E0130
:1016B00026008C0120001810080002306706031D68
:1016C000842B660303192B2B02306606031D7A2B2D
:1016D0000330E6007830DF000030E0007830210091
:1016E000D6000030D700493025008D002530260077
:1016F0008C000800E60126008E0125008E012600E0
:101700008C0120001810080003306706031DAF2B62
:101710006603031D992B0230E6002830DF000030FD
:10172000E00028302100D6000030D70026008C01D0
:10173000080002306606031DAF2B0330E60064305C
:10174000DF000030E00064302100D6000030D70018
:10175000233025008D00123026008C000800E601A1
:1017600026008E0125008E0126008C012000181015
:101770002D3025008D000800210056082000AC0007
:10178000210057082000AD00AE01AF015F08A000A6
:101790006008A100A201A3013E08BA00BB01BC0180
:1017A000BD013D08A7003C08A6003B08A5003A087B
:1017B000A40097319D278A312308B3002208B20084
:1017C0002108B1002008B000873198272C08260096
:1017D0008C000800292C6208031DF22BF430CC0089
:1017E0000130242CEE30CC000230242C6208031D82
:1017F000FD2BE830CC000330242CDC30CC0005304D
:10180000242C62080319FD2BCA30CC000830242C8C
:101810006208031D0F2CD030CC000730242CB830C8
:10182000CC000B30242C6208031D1A2CC430CC00D1
:101830000930242CA630CC000E30242C6208031969
:101840000F2C9430CC001130CD003D2CCC01CD01BB
:101850003D2C6E08013A0319EB2B033A0319F62BC2
:10186000013A0319012C073A0319082C013A03190C
:10187000132C033A03191E2C262C01304D02F5308F
:1018800003194C02031C142D21004D082000CB002D
:1018900021004C082000CA000030AF000030AE002C
:1018A0000030AD000A30AC0021004A082000A00042
:1018B00021004B082000A100A201A3010030A700D5
:1018C0000030A6000030A5000C30A40097319D2701
:1018D0008B312308B3002208B2002108B100200890
:1018E000B000873198278B312D084B02031D7A2CCD
:1018F0002C084A02031CB12C0030AF000030AE00AF
:101900000030AD000A30AC006B08A0006C08A100EC
:10191000A201A3010030A7000030A6000030A500FE
:101920000C30A40097319D278B312308B300220887
:10193000B2002108B1002008B000873198278B3110
:101940002D08EC002C08EB006C084D02031DAA2C9E
:101950006B084C0203180C2D4D08EC004C08EB00F2
:101960000C2D0030AF000030AE000030AD000A306A
:10197000AC0021004A082000C60021004B082000CE
:10198000C700C801C9010330C635C70DC80DC90D50
:10199000890BC42C4908B3004808B2004708B100BD
:1019A0004608B000873198278B312D084B02031D64
:1019B000DB2C2C084A0203180C2D0030AF0000303D
:1019C000AE000030AD000A30AC006B08C6006C08F9
:1019D000C700C801C9010330C635C70DC80DC90D00
:1019E000890BEC2C4908B3004808B2004708B10045
:1019F0004608B000873198278B312D08EC002C0861
:101A0000EB0001306C02F43003196B0203180C2D4B
:101A1000F430EB000130EC004B082100CB0020003B
:101A20004A082100CA00182DF430EB000130EC0008
:101A30008D311B250800200063080319312D610832
:101A4000031D312DF430EB000130EC000030883103
:101A50009A208D3121082100CB0020002008210090
:101A6000CA0020006308031D3F2D610803193F2DA4
:101A7000F430EB000130EC002100CA01CB01200062
:101A80006308E10063080319482D64080319522D07
:101A90003E00A1012000981027008D018C019101CA
:101AA000900108000030AF000030AE000030AD0003
:101AB0006430AC006F08BA00BB01BC01BD01053049
:101AC000BA35BB0DBC0DBD0D890B602D3D08B300B3
:101AD0003C08B2003B08B1003A08B00087319827B3
:101AE0008D312D08BF002C08BE003F08BB003E080A
:101AF000BA00BB36BA0CBB36BA0C3A0827008D00C8
:101B000020003E080339BA000530BA35FF3E031DF8
:101B1000852D3A3527008C00CB2D6208031D942DAE
:101B2000F430C4000130C62DEE30C4000230C62DA2
:101B30006208031D9F2DE830C4000330C62DDC3041
:101B4000C4000530C62D620803199F2DCA30C40099
:101B50000830C62D6208031DB12DD030C4000730F7
:101B6000C62DB830C4000B30C62D6208031DBC2D35
:101B7000C430C4000930C62DA630C4000E30C62DB6
:101B800062080319B12D9430C4001130C500E02D56
:101B9000C401C501E02D20006E08013A03198D2D06
:101BA000033A0319982D013A0319A32D073A031993
:101BB000AA2D013A0319B52D033A0319C02DC82DDA
:101BC0002700921AEE2D003088319A208D3121089D
:101BD0002100CD00200020082100CC0020006C084E
:101BE000C3006B08C20043084502031DF92D4208DB
:101BF00044020318FF2D4508C3004408C200013009
:101C00004302F4300319420203180A2EF430C200D2
:101C10000130C3000030AF000030AE001330AD0023
:101C20008830AC004208A0004308A100A201A30133
:101C30000030A7000030A6000230A5007030A400DC
:101C400097319D278D312308B3002208B200210867
:101C5000B1002008B000873198278D312D08C100D0
:101C60002C08C0004108BB004008BA00BB36BA0CC3
:101C7000BB36BA0C3A08270091002000400803390F
:101C8000BA000530BA35FF3E031D422E3A35270013
:101C90009000200093101B303E00A1000800CE00F1
:101CA00021005308031908008B1352082000CD00AF
:101CB0002100D3018B17200064080319E52E24307E
:101CC0004D06031DAF2E41306F020318080001308E
:101CD000CA004A08EF07F630AE009A30AF006F082E
:101CE000CA00CB014A08B0004B08B1008331C123C0
:101CF0008E318F3026008E00E03025008E002B3094
:101D00008D0016309F2E15306F02031C0800013025
:101D1000EF02F630AE009A30AF006F08CA00CB0178
:101D20004A08B0004B08B1008331C1238F30260030
:101D30008E00E03025008E0049308D0025302600D1
:101D40008C002000E7010130E6006430DF00003045
:101D5000E00064302100D6000030D70008002E30AB
:101D60004D060319832E32304D06031D08006F08FF
:101D7000A0000030883109208E3174302000AE0080
:101D80009A30AF006F08CA00CB014A08B0004B0878
:101D9000B1008331C1238F3026008E00E030250052
:101DA0008E002D308D00173026008C00033020006F
:101DB000E7000130E6005030DF000030E000503036
:101DC0002100D6000030D7000800CC015F08600475
:101DD0000319F32E67030319F12E02306706031D62
:101DE000F32ECC01CC0A4C08CF00DC2F4F08031D8A
:101DF00008008F3026008E00E03025008E00200085
:101E00006308031D282F0130E7000130E60032305F
:101E1000DF000030E00032302100D6000030D70073
:101E2000493025008D00253026008C00013020002F
:101E3000E3000130EE00480886008701810149086F
:101E4000860087010030C03FC13F8D311B2508004F
:101E50000230E7000130E6003230DF000030E00001
:101E600032302100D6000030D7002F3025008D0001
:101E7000183026008C002000E30148088600870106
:101E80008101252F63080319080006306E0203182C
:101E900008000130CA004A08EE078D311B258E313B
:101EA00020004F08031D08008F3026008E00E03010
:101EB00025008E002000E7010130E6006430DF00DD
:101EC0000030E00064302100D6000030D7002B3015
:101ED00025008D00163026008C00080063080319C9
:101EE000080002306E02031C08000130EE028D3142
:101EF0001B258E3120004F08031D08008F3026005F
:101F00008E00E03025008E002000E7010130E60061
:101F10006430DF000030E00064302100D600003083
:101F2000D700493025008D00253026008C000800A0
:101F30006208031D08000130E2004D2F62080319FA
:101F40000800E201772F4E08860087011E3001024B
:101F5000031808000130CA004E08860087014A08AD
:101F60008107512F4E0886008701010803190800D8
:101F70004E0886008701013081027B2F4F08031D28
:101F800008008F3026008E00E03025008E002000F3
:101F9000E7010130E6006430DF000030E00064302B
:101FA0002100D6000030D7002D3025008D001730DD
:101FB00026008C000800BE2F4D08103A0319982FF8
:101FC000023A0319422F063A03196E2F023A0319F7
:101FD000B22F0E3A0319A32F023A0319F62E3E3AF6
:101FE0000319DB2F0C3A0319DB2F063A0319BE2F16
:101FF0001C3A0319DB2F703A03199E2FFF2F08009C
:10200000013400341034003400340134003410340E
:10201000423475347A347A34653472342034283456
:10202000523443343034293420342D343E34203477
:10203000503457344D34203443346F346E34743458
:1020400069346E3475346F347534733420345334DA
:102050006F3475346E34643420344F344E3420344D
:10206000283432342E3437346B3448347A342934BB
:062070000D340A340034B7
:102D4200F4340134013401342D3464008001013142
:102D52000130FE020030FF3B7F087E04031900347D
:102D6200A72EA100A0013A3021020318BE2E303056
:102D72002102031CBE2EA001A00A200C0800013073
:102D82002400910033308E008F018D018C013E00B2
:102D92003D123E163F122E0016160B178B17080017
:102DA200A000D42E2000640030009E18D32E1E17DF
:102DB2002000200830009A0070309B001E141C086E
:102DC2000800A2006A08013E7F39A30023087D069D
:102DD200031908006A08703EA000A1012330A13D3A
:102DE2002008860021088700220881002308EA00C3
:102DF2002E0019160800A2000830A300A401220820
:102E0200A1000730A136890B032F24352104A40029
:102E12000310A20D20082402031C112F2008A40273
:102E22000130A302031D002F24080800A401A501FC
:102E3200201C1F2F2208A4072308A53D0130A2351C
:102E4200A30D890B202F0130A136A00C890B252F51
:102E520020082104031D192F2508A1002408A00021
:102E620008001310181026008E0125008E018F0114
:102E720091018C0124001E08FC3901389E000130AA
:102E8200250090002D308D0026008C018D0125003B
:102E92008E0126008E0109303E00A0000800A2002B
:102EA200A401200803196F2FA301A30AA01B602FFE
:102EB2000310A00D0130A1002108A307572F031012
:102EC200A40D20082202031C6A2F2008A202241447
:102ED2000310A00C0130A302031D602F2408080078
:102EE200280829040319982FAD01AD0AA91B832FC5
:102EF2000130A835A90D890B7A2F0130AC002C08BE
:102F0200AD07772F29082B02031D892F28082A02D3
:102F1200031C8F2F2808AA022908AB3B0130A936CF
:102F2200A80C890B902F0130AD02031D832F2B08B3
:102F3200A9002A08A80008000030AB000030AA004F
:102F42000030A9000030A800201CAF2F2408A807D9
:102F52002508A93D2608AA3D2708AB3D0130A43526
:102F6200A50DA60DA70D890BB02F0130A336A20C1B
:102F7200A10CA00C890BB72F2308220421042004E2
:102F8200031DA52F2B08A3002A08A2002908A100CF
:102F92002808A0000800A501A601200821040319A1
:102FA200FB2FA701A70AA11BE02F0130A035A10D1D
:102FB200890BD72F0130A4002408A707D42F013092
:102FC200A535A60D890BE12F21082302031DEB2F46
:102FD20020082202031CF22F2008A2022108A33B90
:102FE20025140130A136A00C890BF32F0130A70262
:102FF200031DE02F2608A1002508A0000800423486
:1030020075347A347A346534723420342834523444
:1030120043343034293420342D343E342034533474
:1030220079347334743465346D34203452346534F5
:10303200733474346F347234653464342C34203411
:10304200423475347A347A346534723420345334E9
:1030520069346C3465346E3474340D340A3400349B
:10306200693473345F34723475346E346E34693457
:103072006E3467343D34253475342034733465340A
:103082007434743469346E3467345F346D346F343D
:10309200643465343D342534753420346434653405
:1030A2006234753467345F3474346F346734673430
:1030B2006C3465343D34253475340D340A340034AF
:1030C20044346534653470342034483465346134B2
:1030D200743465347234203442346F34613472345F
:1030E2006434203469347334203441344C344934E8
:1030F20056344534203428344134733479346E34B0
:103102006334203455344134523454342934213414
:103112000D340A34003443344334503431344334AC
:103122004F344E343D342534303432345834203424
:103132005434323443344F344E343D3425343034F5
:103142003234583420345034523432343D342534FD
:1031520075342034433443345034523431344C3493
:103162003D34253475340D340A3400344234753418
:103172007A347A3465347234203428345234433405
:103182003034293420342D343E34203431347334F5
:10319200203454346F34673467346C3465342034EB
:1031A2004D346F346434653420344F3446344634FD
:1031B2000D340A3400345B3442344F344F345434C7
:1031C2005D342034423475347A347A34653472345E
:1031D200203444346934613467346E346F34733468
:1031E2007434693463342034533474346134723443
:1031F20074342E342E342E340D340A3400344234D6
:1032020075347A347A346534723420342834523442
:1032120043343034293420342D343E342034313494
:103222007334203454346F34673467346C34653407
:1032320020344D346F346434653420344F344E348A
:103242000D340A3400344C344134543443343D3464
:1032520025343034323458342034543452344934DE
:10326200533443343D3425343034323458342034EA
:103272005234433430345034503453343D34253492
:103282003034323458340D340A3400345434523425
:103292004934533443343D34253430343234583491
:1032A20020344C344134543443343D3425343034A6
:1032B20032345834203441344E3453343D3425347E
:1032C2003034323458340D340A3400345B344234EE
:1032D2004F344F3454345D342034423475347A34AC
:1032E2007A34653472342034443469346134673456
:1032F2006E346F3473347434693463342034443438
:103302006F346E3465340D340A340034433443343C
:10331200503431343D34253430343234583420344E
:10332200543432343D342534303432345834203439
:103332005034523432343D342534753420344434DC
:103342003D34253475340D340A3400344234753436
:103352007A347A3465347234203428345234433423
:103362003034293420342D343E3420344834493426
:1033720047344834203428343534563429340D3413
:103382000A340034423475347A347A34653472340F
:1033920020342834523443343034293420342D3408
:1033A2003E3420344C344F345734203428343034B3
:1033B200563429340D340A34003445346E347434AE
:1033C2006534723469346E3467342034533465346E
:1033D2007434743469346E34673420344D346F3449
:1033E200643465342E342E342E340D340A340034D1
:1033F200503457344D3436343D342534303432343D
:1034020058342034543434343D3425343034323456
:10341200583420345034523434343D3425347534E5
:103422000D340A34003446344F344F3454345F344C
:10343200533445344E342034283441344E343034FD
:10344200293420344134443443343A34203425344A
:1034520075340D340A3400345434323443344C3429
:103462004B343D34253430343234583420345434DF
:10347200343443344C344B343D34253430343234D8
:1034820058340D340A3400345B3444344234473403
:103492005D34203454346F34673467346C346534AB
:1034A200203452344334303420343D3420342534F3
:1034B20064340D340A3400344F34533443344534C5
:1034C2004E343D342534303432345834203453347D
:1034D2005434413454343D34253430343234583445
:1034E2000D340A3400345334613476346534643430
:1034F200203474346F3420344534453450345234DB
:103502004F344D343A342034253464340D340A3483
:10351200003454344D34533430343D342534303453
:1035220032345834203454344D34533431343D34ED
:1035320025343034323458340D340A3400345234A1
:10354200433430343D34253430343234583420342A
:103552005234433436343D342534303432345834E2
:103562000D340A3400343D343D343D342034523479
:10357200453447342034443455344D3450342034A7
:103582003D343D343D340D340A340034303431346A
:1035920032343334343435343634373438343934DD
:1035A2004134423443344434453446340034C03424
:1035B200F934A434B034993492348234F8348034F7
:1035C200903488348334C634A13486348E34433400
:1035D2004C344934203443346D3464343A34203426
:1035E200253463340D340A340034503457344D34A6
:1035F20020345334653474343A34203425346434FA
:103602000D340A340034933401348B3402340734D9
:1036120003344534033464340334643403343634B9
:103622000134D13401346C340234C93402340734E5
:103632000334263403343D343D343D3445344E3472
:1036420044343D343D343D340D340A3400340134C5
:1036520000340A34003464340034E834033410345F
:0236620027340B
:00000001FF
