:100000008031FE28013400347E1480312E00191A0C
:100010000F1E202820006808670603191E2867089D
:10002000703E860087012330873D010822009A0038
:1000300020006708013E7F39E70020282E001912B2
:100040002E00991A8F1E2F28220019082100ED007A
:100050000130EC0022009D1C2F281D121D163E00B1
:100060003F1EFC283F122E00101C3B281010303081
:10007000FB0075304E2824000C08F5000D08F60032
:100080007508F000F1017608F200F3017208F30040
:10009000F20170087204FB0071087304FC00013067
:1000A0007C02903003197B02031CFC2824008D0184
:1000B0008C0161307C02A93003197B02031CEE28FD
:1000C0000130E42817307C02713003197B02031CD5
:1000D000802855307C02F03003197B0203188028F9
:1000E00000302000DD000030DC000030DB0000309C
:1000F000DA00E3010230FD0001302100E600FC28B7
:100100000130B22801307C02903003197B02031CBD
:10011000992805307C02DC3003197B0203189928EA
:1001200001302000DD36DC0CDB0CDA0C890B912869
:10013000B82805307C02DC3003197B02031CB1288F
:100140000D307C02AC3003197B020318B12801305A
:100150002000DD36DC0CDB0CDA0C890BA828DD175F
:10016000B82802302100E5007C08E2007B08E22884
:100170000130F0007008E30720306302031CFC2804
:100180005B08F9005A08F8005C08FA005D08F700FF
:1001900011307806EE3003197906031DDC28770844
:1001A0007A06F000700A031DDC287A082100E700B7
:1001B0000130E800FD01FC2805302100E500790848
:1001C000E2007808E1000330FD00FC281F307C02CB
:1001D000403003197B0203186028FC287D08003A90
:1001E00003196028013A03196228033A0319822887
:1001F000013A0319E628FC287E1009008131002904
:100200009531C8258131E9009531C9258131EA0050
:100210009531CA258131EB009531CB258131EC0038
:100220002100803102208131EE00803103208131B4
:10023000EF0070308400233085008030FE000030F5
:10024000FF009531D5258131FD0154308400003007
:1002500085001530FE000030FF009531D525813135
:10026000E1308400003085000D30FE000030FF00DA
:100270009531D525813120308400013085001E3034
:10028000FE000030FF009531D5257E102000813121
:1002900049298831C62081318731C527813196317E
:1002A000742681319631112681319531EF258131C6
:1002B000200096169614161596156A30AE009A30E0
:1002C000AF008431DD248131C030AE009A30AF0000
:1002D0008431DD248131013024009E008F302600DE
:1002E0008E00E03025008E002D308D001730260066
:1002F0008C0009302000CB001E30CA00E430890B8E
:100300007F29CA0B7F29CB0B7F29000026008C0197
:100310008E0125008E01200018100430AE009B30A5
:10032000AF008431DD24813105302000CB000F3057
:10033000CA00F130890B9A29CA0B9A29CB0B9A294A
:100340001A302000AE009C30AF008431DD248131B2
:100350002430AE009B30AF0026000E082000CA00FB
:10036000CB014A08B0004B08B10025000E08200060
:10037000CC00CD014C08B2004D08B30025000D089B
:100380002000CE00CF014E08B4004F08B500260073
:100390000C082000D000D1015008B6005108B70069
:1003A0008431DD248131DA30AE009B30AF0024008F
:1003B0001E082000CA00CB014A08B0004B08B1005B
:1003C00024001F082000CC00CD014C08B2004D08CD
:1003D000B3008431DD2481319330AE009B30AF0017
:1003E000250010082000CA00CB014A08B0004B08C5
:1003F000B100250016082000CC00CD014C08B20049
:100400004D08B3008431DD24813107302000CB005A
:100410001730CA006A30890B0B2ACA0B0B2ACB0B88
:100420000B2A00005F302000AE009B30AF00270099
:100430000E082000CA00CB014A08B0004B08B100EA
:10044000250014082000CC00CD014C08B2004D0856
:10045000B300250013082000CE00CF014E08B400E1
:100460004F08B5008431DD2481310630AE009C3068
:10047000AF003E0020082000CA00CB014A08B000AF
:100480004B08B1003E0026082000CC00CD014C08EE
:10049000B2004D08B3008431DD248131E430AE0078
:1004A0009A30AF001308CA00CB014A08B0004B08CD
:1004B000B1001808CC00CD014C08B2004D08B300C3
:1004C0003E004E082000CE00CF014E08B4004F0879
:1004D000B5008431DD248131C330AE009B30AF00E4
:1004E000310011082000CA00CB014A08B0004B08B7
:1004F000B100310010082000CC00CD014C08B20042
:100500004D08B3008431DD2481319230AE009C303F
:10051000AF008431DD2481310030963100268131F5
:100520002000EC0014306C02031C9A2A42306C024A
:10053000031C9C2A2D30EC001D302100DE00DA0166
:10054000D001D101FF30D500B230860000308700E5
:1005500006302000CA0000301E00CA0BAC2AA630AC
:100560008600003087000C30CA0000301E00CA0B25
:10057000B62AB8308600003087000C30CA00003040
:100580001E00CA0BC02AA03086000030870006304B
:10059000CA0000301E00CA0BCA2A2100CE01CC01BD
:1005A000CD01D901D90A2000931398133F3092004E
:1005B0001A30890BD92A003220000D080339031D97
:1005C000132B0130E6004430AE009B30AF00843185
:1005D000DD2481316C30AE009C30AF006C08CA0065
:1005E000CB014A08B0004B08B1008431DD248131D1
:1005F0008F3026008E00E03025008E000130240070
:100600009E002D3025008D00173026008C00210023
:10061000EA010130E900C830E3000030E400C830EE
:10062000EE000030EF0020009201981793179631EA
:10063000D526813121006C080319A92CEC016D0825
:10064000DF005E302000AE009C30AF0021005F086C
:100650002000CA00CB014A08B0004B08B100843129
:10066000DD248131483021005F0603193B2B6830BF
:100670005F06031D462BEB013E00A00150105110F8
:10068000200018146230AE009830582B4C305F06B2
:1006900003194E2B6C305F06031D832BEB013E00CC
:1006A000A0015010511020001810BA30AE00983040
:1006B000AF001808CA00CB014A08B0004B08B100CF
:1006C0001308CC00CD014C08B2004D08B3003E0029
:1006D00020082000CE00CF014E08B4004F08B5001E
:1006E0003E0050082000D000D1015008B60051084B
:1006F000B7003E0051082000D200D3015208B800D4
:100700005308B900A62C54305F0603198B2B7430A4
:100710005F06031DC62B6B08031D902B0130912B28
:100720000030EB006B0803199F2B3E00A001501016
:100730005110200018141130AE009930A42B200065
:1007400018100830AE009830AF001808CA00CB016E
:100750004A08B0004B08B1001308CC00CD014C088A
:10076000B2004D08B3003E0020082000CE00CF01AB
:100770004E08B4004F08B5003E0050082000D000DD
:10078000D1015008B6005108B700A62C50305F06C2
:100790000319CE2B70305F06031DE62BEB018F3063
:1007A00026008E00E03025008E0009303E00A000BB
:1007B0002D3025008D00173026008C003E00501093
:1007C000511064302000AE009930932C52305F06F7
:1007D0000319EE2B72305F06031D7C2C1A302000AB
:1007E000AE009C30AF008431DD248131FE30AE009C
:1007F0009930AF001808CA00CB014A08B0004B0876
:10080000B1001308CC00CD014C08B2004D08B30074
:100810003E0020082000CE00CF014E08B4004F0853
:10082000B5003E0050082000D000D1015008B600AD
:100830005108B7003E0051082000D200D3015208F1
:10084000B8005308B9008431DD2481319530AE0001
:100850009A30AF0026000E082000CA00CB014A08DB
:10086000B0004B08B10025000E082000CC00CD01DF
:100870004C08B2004D08B30025000D082000CE0042
:10088000CF014E08B4004F08B50026000C08200028
:10089000D000D1015008B6005108B7008431DD24E2
:1008A00081313A30AE009A30AF006508CA00CB0102
:1008B0004A08B0004B08B1006608CC00CD014C08D6
:1008C000B2004D08B30021006B082000CE00CF011C
:1008D0004E08B4004F08B5008431DD2481317A30F0
:1008E000AE009B30AF00003087318727813121086F
:1008F000B1002008B000A62C53305F060319842CE9
:1009000073305F06031DA92CEB013E00A0012000FF
:10091000181026008E018C013E0050105110B2308C
:100920002000AE009930AF003E0050082000CA0001
:10093000CB014A08B0004B08B1003E00510820002E
:10094000CC00CD014C08B2004D08B3008431DD2449
:100950008131210066080319B62CE601A830200079
:10096000AE009C30AF008431DD2481312100650868
:100970000319D42C4E302000AE009C30AF00210073
:1009800065082000CA00CB014A08B0004B08B1003E
:10099000210062082000B300210061082000B2009D
:1009A0008431DD242100E501200065088931031D23
:1009B000042920009616893106293030C300200012
:1009C0002F08BB002E08BA00AE0A0319AF0A3A0876
:1009D00084003B0885000008C90049080319080085
:1009E000253049060319F92C49089631232684310C
:1009F000DF2CC701C801C601022D46150130AE0724
:100A00000030AF3D2E0884002F0885000008303AE2
:100A10000319FD2C0B2D2E0884002F0885000008DB
:100A20009531E1258431031C8F2DC701C8010A309F
:100A3000A0000030A1004808A3004708A20096319A
:100A40003D2684312108C8002008C7002E088400F4
:100A50002F0885000008D03EBA00FF300318003090
:100A6000BB003A08C7073B08C83D0130AE0700305D
:100A7000AF3D2E0884002F08850000089531E12540
:100A80008431031C8F2D172DC617B22D003048025C
:100A9000023003194702031C522DFF30C707FF30F5
:100AA000C83D542DC701C801FF302000C707FF30E3
:100AB000C83D470A0319480A03196F2D20309631A3
:100AC00023268431542D3F08860087010108963182
:100AD0002326843101302000BA003A08BF070130D4
:100AE000C0020030C13B400A031D632D410A0319B7
:100AF000DF2C632D4308860087010108C9000230FE
:100B0000BA003A08C3074930BF000130C0000030C6
:100B1000C100462DC030BA003A08C604B22D2F08D5
:100B2000BB002E08BA00AE0A0319AF0A3A088400C7
:100B30003B0885000008C900003A0319E32E583A23
:100B40000319442D3B3A03197A2D073A0319B22DA4
:100B50000D3A0319B22D1C3A03198A2D0D3A0319C7
:100B6000442D832D4608C039031DCD2D4308860032
:100B70008701403FC400413FC5000230BA003A0837
:100B8000C307C51F1F2E0330BA003A08C604C409A4
:100B9000C509C40A0319C50A1F2E43088600870128
:100BA000403FC400413FC5000230BA003A08C307C5
:100BB0001F2EC901C90A0530490603192B2E490801
:100BC000BA00BB01BA35BB0D9E303A0784001C3019
:100BD0003B3D80388500003FBC00013FBD003D0823
:100BE0004502031DF52D3C084402031C2B2E013049
:100BF000BA003A08C907DB2DC901C90A0430490601
:100C000003192B2E4908BA00BB01BA35BB0D0030C1
:100C10003A07840018303B3D80388500003FBC0017
:100C2000013FBD003D084502031D182E3C0844024B
:100C3000031C2B2E0130BA003A08C907FE2D4608C6
:100C4000C039003A0319D92D803A0319FC2D403AD6
:100C50000319D92D2B2E470848040319372E4608AF
:100C600003390319372EFF30C707FF30C83D480846
:100C7000803A803C031D3E2E470849020318492E46
:100C800020004908BA00BB013A08C7023B08C83B2C
:100C90004C2E2000C701C801461D652E46080339A9
:100CA0000319562E2D309631232684312000470813
:100CB000480403197E2E3030963123268431FF30CC
:100CC0002000C707FF30C83D572E470848040319C6
:100CD000762E2030963123268431FF302000C7073E
:100CE000FF30C83D47084804031D692E46080339F4
:100CF00003197E2E2D309631232684312000490899
:100D0000C200CE2E0A30A8000030A9004208BA0066
:100D1000BB01BA35BB0D9E303A0784001C303B3D09
:100D200080388500003FA000013FA1004508A300D6
:100D30004408A20088315D2084312108AB002008DE
:100D4000AA008831022084312808303EC92E42088A
:100D5000BA00BB01BA35BB0D00303A078400183029
:100D60003B3D80388500003FA000013FA1004508C1
:100D7000A3004408A20088315D20843120080F3987
:100D8000BE003E082D3E84009C300318013E8500C5
:100D90000008C9004908963123268431FF3020001D
:100DA000BA003A08C207420A0319DF2C4608C039C4
:100DB000003A0319822E803A0319A72E403A0319EC
:100DC000822ECA2ECA2E08000030B8000030B700AC
:100DD0000030B6000030B5002F082E042D042C047E
:100DE00003192D2FB901B90AAF1B022F0130AC3501
:100DF000AD0DAE0DAF0D890BF72E0130B4003408E8
:100E0000B907F42E0130B535B60DB70DB80D890B05
:100E1000032F2F083302031D172F2E083202031D44
:100E2000172F2D083102031D172F2C083002031C29
:100E3000222F2C08B0022D08B13B2E08B23B2F0800
:100E4000B33B35140130AF36AE0CAD0CAC0C890B96
:100E5000232F0130B902031D022F3808AF003708D5
:100E6000AE003608AD003508AC000800A601A11F91
:100E7000402FA009A109A00A0319A10AA601A60AE8
:100E8000A31F4B2FA209A309A20A0319A30A013029
:100E9000A4002408A606A701A8012008210403191C
:100EA0007A2FA501A50AA11B5F2F0130A035A10D46
:100EB000890B562F0130A4002408A507532F0130B9
:100EC000A735A80D890B602F21082302031D6A2F67
:100ED00020082202031C712F2008A2022108A33B34
:100EE00027140130A136A00C890B722F0130A50206
:100EF000031D5F2F26080319822FA709A809A70A37
:100F00000319A80A2808A1002708A000080020004B
:100F1000A60026083F3921009E0000302000AA00CC
:100F20000030A9000030A8000030A700AB010D3050
:100F3000890B982F00002100131413189D2F0C0803
:100F40002000A70721000D082000A83D0030A93D82
:100F5000AA3D0130A2002208AB0710302B02031C6F
:100F6000972F2708A2002808A3002908A4002A0810
:100F7000A5000430A536A40CA30CA20C890BBA2F33
:100F80002308A1002208A000080025009201950175
:100F9000970198019B019D0124001F08F33908382F
:100FA0009F000130250096000730930080309400A8
:100FB000803027008E008D018C0124001F08CF395E
:100FC00030389F00053025009C009B309900803010
:100FD0009A0080302700920091019001803031000A
:100FE000970098010830990009309B009A0113304E
:100FF0003D00B8003E00A1012000931098100800A9
:101004002808290403192928AD01AD0AA91B1428AD
:101014000130A835A90D890B0B280130AC002C0830
:10102400AD07082829082B02031D1A2828082A02BC
:10103400031C20282808AA022908AB3B0130A93642
:10104400A80C890B21280130AD02031D14282B089C
:10105400A9002A08A80008000030AB000030AA004C
:101064000030A9000030A800201C40282408A8074C
:101074002508A93D2608AA3D2708AB3D0130A43523
:10108400A50DA60DA70D890B41280130A336A20C8E
:10109400A10CA00C890B4828230822042104200455
:1010A400031D36282B08A3002A08A2002908A10042
:1010B4002808A0000800A501A6012008210403199E
:1010C4008C28A701A70AA11B71280130A035A10D06
:1010D400890B68280130A4002408A707652801307B
:1010E400A535A60D890B722821082302031D7C282F
:1010F40020082202031C83282008A2022108A33B03
:1011040025140130A136A00C890B84280130A702D4
:10111400031D71282608A1002508A0000800A001CD
:10112400FF3097009614161596158530890B98286C
:1011340000002000931398133F3092000D30890B68
:10114400A128000020000D083F39A1002118AD2876
:10115400A001A00AC128A118B1280230C028211971
:10116400B5280330C028A119B9280430C028211A91
:10117400BD280530C028A11AC1280630A00092015C
:101184009817931720080800603031008D0006304E
:1011940093002430910001303E00B800C301CE0119
:1011A400D001D101113020009100920193012E3021
:1011B4009600FF309700803098003E00B901C401CA
:1011C400CF013C1226008E0127008E0192012500DA
:1011D4008E0194019A018F0195019B019101970160
:1011E4009D018C01920198013100970199019B01A5
:1011F4009A0110303E00A60017303D00CB00953117
:10120400CC25080020009612650803190F29210037
:10121400D901D90ACC01CD01242901302100CC0700
:101224000030CD3D00304D029C3003194C02031CAC
:101234002429CC01CD015908031D22290130232979
:101244000030D900FF302000970016159615853020
:10125400890B2A29000020006608031D3529210076
:10126400590803195A2920006608031D3D29210045
:101274005E0820003E296C08CA00CB014A08210000
:10128400C40020004B082100C5004408C8000A30EF
:101294002000A000210048089631582689313E3E9E
:1012A40084009C300318013E8500000897009610C6
:1012B4000B302000CA006230890B5E29CA0B5E29FC
:1012C400000020009614FF30970096149615853080
:1012D400890B6A29000020006608031D7529210076
:1012E400590803199A2920006608031D7D29210045
:1012F4005E0820007E296C08CA00CB014A08210040
:10130400C60020004B082100C7004608C9000A3067
:101314002000A000210049089631B32689313E3EC1
:1013240084009C300318013E8500000897001611C4
:101334000B302000CA006230890B9E29CA0B9E29FB
:10134400000020001615FF309700961416158530FE
:10135400890BAA29000020006608031DDE29650800
:101364000319DE292100D201D30120006B082100DA
:1013740053020318D32901302000CA002100530A64
:101384002000C529CA35890BC4294A08CB004B085B
:101394002100D20401302000CA004A082100D307EA
:1013A400B729200064080319DA292100D217DC299F
:1013B400210052175209F0296608031DF52921005E
:1013C40059080319F529CF01200064080319ED29F0
:1013D4002100CF17EF2921004F174F09D5005508D9
:1013E4002000970096110B302000CA006230890B50
:1013F400F929CA0BF9290000200096156608031D77
:10140400802D03302100D0070030D13D033051023C
:10141400E83003195002031CB42BE830D002033027
:10142400D13B6B0803192B2A013020009806AB30FE
:10143400AE009B30AF000310181803140030093DB0
:10144400CA00CB014A08B0004B08B1008431DD2446
:101454008931200065080319B42B21005E080319A3
:101464005A080319422A5A08031D402A5E08031920
:10147400422A0130DE023B30DA00422A0130DA022D
:101484005E08031D6B2A5A08031D6B2A2000E50120
:101494002100DA019631D52689318F3026008E005D
:1014A400E03025008E0009303E00A0002D302500DC
:1014B4008D00173026008C002100EA010130E9007C
:1014C400C230E3000130E400C230EE000130EF002E
:1014D400B42BDB01DC01B72A6408031D762AF4303F
:1014E4002100DB000130B12AEE302100DB000230A4
:1014F400B12A6408031D832AE8302100DB0003308D
:10150400B12ADC302100DB000530B12A640803195C
:10151400832ACA302100DB000830B12A6408031D85
:10152400982AD0302100DB000730B12AB8302100DE
:10153400DB000B30B12A6408031DA52AC430210046
:10154400DB000930B12AA6302100DB000E30B12ABD
:1015540064080319982A94302100DB001130DC0060
:10156400CC2A2100DB01DC01CC2A20006B08013AE3
:1015740003196E2A033A03197B2A013A0319882AAC
:10158400073A0319902A013A03199D2A033A0319C9
:10159400AA2AB32A01305C02F53003195B02031C4A
:1015A400AC2B200061082100D70020006008210036
:1015B400D60000302000AF000030AE000030AD0097
:1015C4000A30AC005E08A0005F08A100A201A301DC
:1015D4000030A7000030A6000030A5000C30A400A5
:1015E40088312E2089312308B3002208B200210853
:1015F400B1002008B0008631E42689312D0821008D
:101604005702031D092B20002C0821005602031C3D
:10161400472B00302000AF000030AE000030AD009A
:101624000A30AC006908A0006A08A100A201A30165
:101634000030A7000030A6000030A5000C30A40044
:1016440088312E2089312308B3002208B2002108F2
:10165400B1002008B0008631E42689312D08EA0063
:101664002C08E9006A0821005C02031D3D2B2000C0
:10167400690821005B020318A32B5C082000EA0020
:1016840021005B082000E900A32B00302000AF00FC
:101694000030AE000030AD000A30AC005E08CA0075
:1016A4005F08CB00CC01CD010330CA35CB0DCC0D86
:1016B400CD0D890B572B4D08B3004C08B2004B08D5
:1016C400B1004A08B0008631E42689312D08210092
:1016D4005702031D712B20002C0821005602031809
:1016E400A32B00302000AF000030AE000030AD006E
:1016F4000A30AC006908CA006A08CB00CC01CD01ED
:101704000330CA35CB0DCC0DCD0D890B832B4D0881
:10171400B3004C08B2004B08B1004A08B00086314F
:10172400E42689312D08EA002C08E90001306A0218
:10173400F430031969020318A32BF430E9000130D3
:10174400EA00210057082000DF002100560820008D
:10175400DE00B12BF4302000E9000130EA009631BC
:10176400D526893121006B08031DC12B20001818D0
:10177400C12B8831912089312100CE00C32B210057
:10178400CE01E001063060020318802D6008013E9E
:101794002000CA00003003180130CB0021004E089D
:1017A40020004A064B04031D4E2D21006008B23E62
:1017B400860087010A3001020318F22C0130200050
:1017C400CA0021006008B23E8600870120004A0852
:1017D400810721006008B23E860087010A300106B5
:1017E400031D792D6008A03E860087010108031DB2
:1017F400792D6008A03E860087018101810A603549
:10180400A63E860087010030C03FC13F6035B83E28
:10181400860087010030C03FC13F6008031D5F2C74
:101824006308640403191D2C6A030319792D02301B
:101834006A060319792D8F3026008E00E0302500CA
:101844008E0020006508031D472C01302100EA00AA
:101854000130E9003230E3000030E4003230EE00C1
:101864000030EF00493025008D00253026008C0023
:1018740001302000E5000130EB002100DA01D00145
:10188400D1019631D5268931792D02302100EA0023
:101894000130E9003230E3000030E4003230EE0081
:1018A4000030EF002F3025008D00183026008C000A
:1018B4002000E5012100DA01432CD4016003031D5B
:1018C4006C2C20006408031D692C01306A2C003044
:1018D400E400A62C02306006031D7D2C1E305E023F
:1018E4000318AC2C01302000CA004A082100DE078E
:1018F400D401D40AAC2C03306006031D872C5E0887
:101904000319AC2C0130DE027A2C04306006031D6E
:10191400982C200065080319AC2C06306B020318C0
:10192400AC2C0130CA004A08EB07A62C053060062F
:10193400031DAC2C200065080319AC2C02306B028B
:10194400031CAC2C0130EB022100D401D40A9631E3
:10195400D5268931210054080319792D63086404BC
:10196400031D792D630864040319BF2C6A0303194A
:10197400792D02306A060319792D8F3026008E00E6
:10198400E03025008E002100EA010130E9006430D6
:10199400E3000030E4006430EE000030EF00023079
:1019A40060060319D92C04306006031DDE2C2B308D
:1019B40025008D001630EF2C033060060319E62C49
:1019C40005306006031DEB2C493025008D002530C1
:1019D400EF2C2D3025008D00173026008C00792D3A
:1019E400023060060319FA2C03306006031D792DBA
:1019F4006035A63E86008701013081074131031816
:101A0400810A6035A63E86008701403F2000CA0057
:101A1400413FCB0000304B02963003194A02031CAD
:101A2400792D21006035B83E860087010130810799
:101A340041310318810A6035B83E86008701403F72
:101A44002000CA00413FCB0000304B021E30031976
:101A54004A02031C792D21006035B83E86008701B7
:101A64000030C03FC13F02306006031D442D1E30CC
:101A74005E020318792D01302000CA004A082100B3
:101A8400DE07792D03306006031D792D5E080319E6
:101A9400792D0130DE02792D210063086404031DD1
:101AA400792D26000E08031D792D21006008B23E11
:101AB4008600870101080319662D6008B23E86007E
:101AC400870101308102792D6008A03E86008701DC
:101AD40081016035A63E860087010030C03FC13FCA
:101AE4006035B83E860087010030C03FC13F0130F9
:101AF4002000CA004A082100E007C42B210068081E
:101B040003191B2F8B136708D800E8018B172000DB
:101B140066080319142E243021005806031DBE2D17
:101B2400413020006C0203181B2F0130CA004A0800
:101B3400EC076C30AE009C30AF006C08CA00CB01DF
:101B44004A08B0004B08B1008431DD2489318F305C
:101B540026008E00E03025008E002B308D001630DC
:101B640026008C002100EA010130E9006430E30022
:101B74000030E4006430102E2E305806031DE12D91
:101B8400153020006C02031C1B2F0130EC026C305A
:101B9400AE009C30AF006C08CA00CB014A08B0000C
:101BA4004B08B1008431DD2489318F3026008E004A
:101BB400E03025008E0049308D002530B22D3230C2
:101BC4005806031D1B2F20006C08A000003096311E
:101BD40092268931F0302000AE009B30AF006C08B3
:101BE400CA00CB014A08B0004B08B1008431DD249F
:101BF40089318F3026008E00E03025008E002D3094
:101C04008D00173026008C0003302100EA000130DB
:101C1400E9005030E3000030E4005030EE000030C2
:101C2400EF001B2F2100CB01630864040319232E4A
:101C34006A030319212E02306A06031D232ECB01E9
:101C4400CB0A4B08DD00F82E5D08031D1B2F8F30D7
:101C540026008E00E03025008E0020006508031D5C
:101C6400532E01302100EA000130E9003230E30054
:101C74000030E4003230EE000030EF00493025003F
:101C84008D00253026008C0001302000E500013055
:101C9400EB002100DA01D001D1019631D52689313A
:101CA4001B2F02302100EA000130E9003230E3004A
:101CB4000030E4003230EE000030EF002F30250019
:101CC4008D00183026008C002000E5012100DA0187
:101CD4004F2E2000650803191B2F06306B020318D2
:101CE4001B2F0130CA004A08EB079631D5268931EB
:101CF40021005D08031D1B2F8F3026008E00E0306D
:101D040025008E002100EA010130E9006430E3007F
:101D14000030E4006430EE000030EF002B3025008A
:101D24008D001630F42E2000650803191B2F023095
:101D34006B02031C1B2F0130EB029631D52689312F
:101D440021005D08031D1B2F8F3026008E00E0301C
:101D540025008E002100EA010130E9006430E3002F
:101D64000030E4006430EE000030EF00493025001C
:101D74008D002530F42E20006408031D1B2F013034
:101D8400E400772E2000640803191B2FE4019F2E22
:101D94001E305E0203181B2F01302000CA004A08BF
:101DA4002100DE077B2E5E0803191B2F0130DE02A3
:101DB400A32E5D08031D1B2F8F3026008E00E030FC
:101DC40025008E002100EA010130E9006430E300BF
:101DD4000030E4006430EE000030EF002D302500C8
:101DE4008D00173026008C001B2FDB2E5808103A6C
:101DF4000319BD2E023A03196B2E063A0319952EC8
:101E0400023A0319D52E0E3A0319CA2E023A0319BF
:101E1400262E3E3A0319F72E0C3A0319F72E063AEA
:101E24000319DB2E1C3A0319F72E703A0319C42E3A
:101E34001B2F2100630864040319962F6F0864069E
:101E4400031D262F6E086306031D2E2F8F302600D8
:101E54008E00E03025008E0001302100E3020030C6
:101E6400E43B02302000A0000030A10025000D0852
:101E7400013E2000A200003003180130A300873186
:101E84003627893120082100CA0063086404031D31
:101E9400CC2F6A03031D732F6903031D602F0230C7
:101EA400E9003230E3000030E4003230EE0000306C
:101EB400EF00383025008D001C30FD2F02306906FC
:101EC400031D8D2F0330E9007830E3000030E40077
:101ED4007830EE000030EF002F3025008D001830F0
:101EE400FD2F02306A06031D982F69030319512F31
:101EF40002306906031D8D2F0330E9007830E300BA
:101F04000030E4007830EE000030EF004930250066
:101F14008D002530FD2FE90126008E0125008E015C
:101F240026008C01200018108331172B03306A0619
:101F3400031DBF2F6903031DAC2F0230E9002830B5
:101F4400E3000030E4002830EE000030EF0026000B
:101F54008C01962F02306906031DBF2F0330E90060
:101F64006430E3000030E4006430EE000030EF0041
:101F7400233025008D001230FD2FE90126008E014B
:101F840025008E0126008C01200018102D3025001C
:101F94008D00962F6E082000AC0021006F082000F1
:101FA400AD00AE01AF01210063082000A0002100B4
:101FB40064082000A100A201A30121004A08200016
:101FC400CA00CB01CC01CD014D08A7004C08A600E6
:101FD4004B08A5004A08A40088312E208931230823
:101FE400B3002208B2002108B1002008B0008631F5
:0C1FF400E42689312C0826008C00962F72
:102B9000F434013401342D3421009A01943093002F
:102BA00094019501960199010800640080010131AA
:102BB0000130FE020030FF3B7F087E040319003421
:102BC000D62DA100A0013A3021020318ED2D30309E
:102BD0002102031CED2DA001A00A200C08000130E9
:102BE0002400910033308E008F018D018C013E0056
:102BF0003D123E163F122E0016160B178B170800BB
:102C0000A000032E2000640030009E18022E1E1724
:102C10002000200830009A0070309B001E141C0811
:102C2000080022009E1624309E0008309F000330CA
:102C30009C0040309B0003309C0090309D002E0093
:102C4000191299160800A2006808013E7F39A300F6
:102C500023086706031908006808703EA000A10158
:102C60002330A13D2008860021088700220881002A
:102C70002308E8002E0019160800A401A501201C55
:102C8000452E2208A4072308A53D0130A235A30D37
:102C9000890B462E0130A136A00C890B4B2E200843
:102CA0002104031D3F2E2508A1002408A0000800D0
:102CB0002000A2000830A300A4012208A1000730D0
:102CC000A136890B602E24352104A4000310A20D27
:102CD00020082402031C6E2E2008A4020130A30247
:102CE000031D5D2E240808001310181026008E0105
:102CF00025008E018F0191018C0124001E08FC39F2
:102D000001389E000130250090002D308D002600F6
:102D10008C018D0125008E0126008E0109303E00B8
:102D2000A0000800A10030009E18932E1E1720005E
:102D3000210830009A0070309B009D01200020087F
:102D400030009C0003108B1B03148B131E15553091
:102D50009F00AA309F009E149E18AC2E1E11031CCB
:102D600008008B1708002000A200A4012008031906
:102D7000D32EA301A30AA01BC42E0310A00D013063
:102D8000A1002108A307BB2E0310A40D20082202D6
:102D9000031CCE2E2008A20224140310A00C013024
:102DA000A302031DC42E240808002000650803198F
:102DB000E82E6208031DE82EF430E9000130EA0035
:102DC00000308731872796312108DF002008DE0098
:102DD0006508031DF42E62080319F42EF430E9008F
:102DE0000130EA00DE01DF016508E2006508031931
:102DF000FC2E66080319062F3E00A1012000981042
:102E000027008D018C019101900108000030AF0076
:102E10000030AE000030AD006430AC006C08BA0089
:102E2000BB01BC01BD010530BA35BB0DBC0DBD0DEC
:102E3000890B142F3D08B3003C08B2003B08B100D9
:102E40003A08B0008631E42696312D08BF002C08E0
:102E5000BE003F08BB003E08BA00BB36BA0CBB360A
:102E6000BA0C3A0827008D0020003E080339BA004A
:102E70000530BA35FF3E031D392F3A3527008C0047
:102E80007F2F6408031D482FF430C40001307A2FCF
:102E9000EE30C40002307A2F6408031D532FE8304F
:102EA000C40003307A2FDC30C40005307A2F640868
:102EB0000319532FCA30C40008307A2F6408031D49
:102EC000652FD030C40007307A2FB830C4000B30E3
:102ED0007A2F6408031D702FC430C40009307A2F84
:102EE000A630C4000E307A2F64080319652F943081
:102EF000C4001130C500942FC401C501942F2000D7
:102F00006B08013A0319412F033A03194C2F013A78
:102F10000319572F073A03195E2F013A0319692F36
:102F2000033A0319742F7C2F2700921A9F2F003029
:102F30008731872796312108E1002008E000200032
:102F40006A08C3006908C20043084502031DAA2F8E
:102F5000420844020318B02F4508C3004408C200C9
:102F600001304302F430031942020318BB2FF4303E
:102F7000C2000130C3000030AF000030AE0013309B
:102F8000AD008830AC004208A0004308A100A201B7
:102F9000A3010030A7000030A6000230A500703069
:102FA000A40088312E2096312308B3002208B200F5
:102FB0002108B1002008B0008631E42696312D08A2
:102FC000C1002C08C0004108BB004008BA00BB3655
:102FD000BA0CBB36BA0C3A08270091002000400812
:102FE0000339BA000530BA35FF3E031DF32F3A35D9
:102FF00027009000200093101B303E00A100080025
:1030000001340034103400340034013400341034FE
:10301000423475347A347A34653472342034283446
:10302000523443343034293420342D343E34203467
:1030300031347334203454346F34673467346C342F
:10304000653420344D346F346434653420344F3467
:1030500046344634203428344C344F3457342934E1
:1030600020345B344C344134543443343D342534BF
:103070003034323458342034543452344934533494
:1030800043343D34253430343234583420345234CF
:10309000433430345034503453343D342534303498
:1030A0003234583420344F34443443344F344E3463
:1030B00043343D3425343034323458345D340D34A7
:1030C0000A340034423475347A347A3465347234D4
:1030D00020342834523443343034293420342D34CD
:1030E0003E3420344834493447344834203428347A
:1030F00035345634293420345B344C344134543420
:1031000043343D342534303432345834203454344C
:1031100052344934533443343D342534303432341A
:1031200058342034523443343034503450345334CF
:103130003D34253430343234583420344F34443420
:1031400043344F344E3443343D34253430343234F8
:103150005834203453344C34523443344F344E3486
:1031600043343D3425343034323458345D340D34F6
:103170000A340034423475347A347A346534723423
:1031800020342834523443343034293420342D341C
:103190003E3420344C344F345734203428343034C7
:1031A0005634293420345B344C3441345434433461
:1031B0003D3425343034323458342034543452348D
:1031C0004934533443343D34253430343234583464
:1031D00020345234433430345034503453343D343A
:1031E000253430343234583420344F34443443346A
:1031F0004F344E3443343D34253430343234583433
:10320000203453344C34523443344F344E344334EA
:103210003D3425343034323458345D340D340A347E
:103220000034423475347A347A346534723420345C
:103230002834523443343034293420342D343E344D
:10324000203431347334203454346F346734673469
:103250006C34653420344D346F3464346534203438
:103260004F344E3420345B344C3441345434433482
:103270003D342534303432345834203454345234CC
:103280004934533443343D342534303432345834A3
:1032900020345234433430345034503453343D3479
:1032A000253430343234583420344F3444344334A9
:1032B0004F344E3443343D34253430343234583472
:1032C0005D340D340A340034423475347A347A343F
:1032D0006534723420342834523443343034293441
:1032E00020342D343E342034503457344D3420347F
:1032F00043346F346E34743469346E3475346F34DF
:1033000075347334203453346F3475346E3464340C
:1033100020344F344E342034283432342E34373471
:103320006B3448347A34293420345B344F34443499
:1033300043344F344E3443343D3425343034323406
:103340005834203453344C34523443344F344E3494
:1033500043343D3425343034323458345D340D3404
:103360000A340034423475347A347A346534723431
:1033700020342834523443343034293420342D342A
:103380003E342034533479347334743465346D34BA
:10339000203452346534733474346F347234653489
:1033A00064342C342034423475347A347A346534BD
:1033B00072342034533469346C3465346E3474346C
:1033C00020345B344F34443443344F344E3443342C
:1033D0003D342534303432345834203453344C3472
:1033E000523443344F344E3443343D342534303436
:1033F000323458345D340D340A3400344C344134A2
:10340000543443343D342534303432345834203449
:10341000543452344934533443343D3425343034F5
:1034200032345834203452344334303450345034ED
:1034300053343D34253430343234583420344F340E
:10344000443443344F344E3443343D3425343034E3
:1034500032345834203453344C34523443344F349F
:103460004E3443343D3425343034323458340D3402
:103470000A340034693473345F34723475346E3412
:103480006E3469346E3467343D34253475342034F9
:10349000733465347434743469346E3467345F342F
:1034A0006D346F34643465343D34253475342034E0
:1034B000643465346234753467345F3474346F3423
:1034C000673467346C3465343D34253475340D34D9
:1034D0000A3400344434653465347034203448345C
:1034E00065346134743465347234203442346F345A
:1034F0006134723464342034693473342034413498
:103500004C344934563445342034283441347334EF
:1035100079346E3463342034553441345234543465
:10352000293421340D340A340034433443345034C4
:10353000313443344F344E343D3425343034323416
:10354000583420345434323443344F344E343D34C0
:1035500025343034323458342034503452343234F8
:103560003D3425347534203443344334503452349C
:1035700031344C343D34253475340D340A34003440
:103580005B3442344F344F3454345D34203442344D
:1035900075347A347A34653472342034443469347E
:1035A000613467346E346F34733474346934633423
:1035B0002034533474346134723474342E342E34E1
:1035C0002E340D340A3400345434523449345334D4
:1035D00043343D34253430343234583420344C3480
:1035E0004134543443343D34253430343234583447
:1035F000203441344E3453343D3425343034323465
:1036000058340D340A3400345B3442344F344F3470
:1036100054345D342034423475347A347A34653429
:103620007234203444346934613467346E346F3416
:103630007334743469346334203444346F346E34F6
:1036400065340D340A340034433443345034313457
:103650003D34253430343234583420345434323408
:103660003D342534303432345834203450345234DC
:1036700032343D3425347534203444343D342534DB
:1036800075340D340A34003445346E347434653482
:10369000723469346E34673420345334653474348E
:1036A000743469346E34673420344D346F34643488
:1036B00065342E342E342E340D340A340034503414
:1036C00057344D3436343D34253430343234583464
:1036D0002034543434343D34253430343234583486
:1036E00020345034523434343D34253475340D3460
:1036F0000A34003446344F344F3454345F34533436
:1037000045344E342034283441344E343034293456
:1037100020344134443443343A342034253475342D
:103720000D340A3400345434323443344C344B3482
:103730003D34253430343234583420345434343425
:1037400043344C344B343D342534303432345834E3
:103750000D340A3400345B344434423447345D342D
:10376000203454346F34673467346C346534203417
:1037700052344334303420343D34203425346434DE
:103780000D340A3400344F345334433445344E340A
:103790003D342534303432345834203453345434A6
:1037A000413454343D3425343034323458340D34BB
:1037B0000A34003454344D34533430343D342534D9
:1037C000303432345834203454344D34533431345A
:1037D0003D3425343034323458340D340A34003416
:1037E00053346134763465346434203474346F3443
:1037F000203445344534503452344F344D343A3407
:103800002034253464340D340A34003452344334C3
:1038100030343D342534303432345834203452344A
:10382000433436343D3425343034323458340D3456
:103830000A3400343D343D343D3420345234453470
:1038400047342034443455344D34503420343D34DE
:103850003D343D340D340A340034303431343234A4
:1038600033343434353436343734383439344134FD
:10387000423443344434453446340034C034F9349B
:10388000A434B034993492348234F834803490348F
:1038900088348334C634A13486348E344934523467
:1038A00020344534523452342034253464342C349A
:1038B0002034253475340D340A34003443344C3408
:1038C0004934203443346D3464343A34203425345C
:1038D00063340D340A340034503457344D342034BA
:1038E0005334653474343A342034253464340D341C
:1038F0000A340034933401348B34023407340334F3
:1039000045340334643403346434033436340134CA
:10391000D13401346C340234C934023407340334F2
:10392000263403343D343D343D3445344E34443440
:103930003D343D343D340D340A3400340134003418
:103940000A34003464340034E83403341034273447
:103950004934523420344C34443452340D340A3413
:02396000003431
:020000040001F9
:0A000E008C1FFF379F3FFF3FFF3FAD
:00000001FF
